{
  "abi": [
    {
      "inputs": [
        {
          "internalType": "uint256",
          "name": "minimum",
          "type": "uint256"
        },
        {
          "internalType": "address",
          "name": "creator",
          "type": "address"
        }
      ],
      "stateMutability": "nonpayable",
      "type": "constructor"
    },
    {
      "inputs": [
        {
          "internalType": "uint256",
          "name": "index",
          "type": "uint256"
        }
      ],
      "name": "approveRequest",
      "outputs": [],
      "stateMutability": "nonpayable",
      "type": "function"
    },
    {
      "inputs": [
        {
          "internalType": "address",
          "name": "",
          "type": "address"
        }
      ],
      "name": "approvers",
      "outputs": [
        {
          "internalType": "bool",
          "name": "",
          "type": "bool"
        }
      ],
      "stateMutability": "view",
      "type": "function"
    },
    {
      "inputs": [],
      "name": "approversCount",
      "outputs": [
        {
          "internalType": "uint256",
          "name": "",
          "type": "uint256"
        }
      ],
      "stateMutability": "view",
      "type": "function"
    },
    {
      "inputs": [],
      "name": "contribute",
      "outputs": [],
      "stateMutability": "payable",
      "type": "function"
    },
    {
      "inputs": [
        {
          "internalType": "string",
          "name": "description",
          "type": "string"
        },
        {
          "internalType": "uint256",
          "name": "value",
          "type": "uint256"
        },
        {
          "internalType": "address payable",
          "name": "recipient",
          "type": "address"
        }
      ],
      "name": "createRequest",
      "outputs": [],
      "stateMutability": "nonpayable",
      "type": "function"
    },
    {
      "inputs": [
        {
          "internalType": "uint256",
          "name": "index",
          "type": "uint256"
        }
      ],
      "name": "finalizeRequest",
      "outputs": [],
      "stateMutability": "nonpayable",
      "type": "function"
    },
    {
      "inputs": [],
      "name": "getSummary",
      "outputs": [
        {
          "internalType": "uint256",
          "name": "",
          "type": "uint256"
        },
        {
          "internalType": "uint256",
          "name": "",
          "type": "uint256"
        },
        {
          "internalType": "uint256",
          "name": "",
          "type": "uint256"
        },
        {
          "internalType": "uint256",
          "name": "",
          "type": "uint256"
        },
        {
          "internalType": "address",
          "name": "",
          "type": "address"
        }
      ],
      "stateMutability": "view",
      "type": "function"
    },
    {
      "inputs": [],
      "name": "manager",
      "outputs": [
        {
          "internalType": "address",
          "name": "",
          "type": "address"
        }
      ],
      "stateMutability": "view",
      "type": "function"
    },
    {
      "inputs": [],
      "name": "minimumContribution",
      "outputs": [
        {
          "internalType": "uint256",
          "name": "",
          "type": "uint256"
        }
      ],
      "stateMutability": "view",
      "type": "function"
    },
    {
      "inputs": [
        {
          "internalType": "uint256",
          "name": "",
          "type": "uint256"
        }
      ],
      "name": "requests",
      "outputs": [
        {
          "internalType": "string",
          "name": "description",
          "type": "string"
        },
        {
          "internalType": "uint256",
          "name": "value",
          "type": "uint256"
        },
        {
          "internalType": "address payable",
          "name": "recipient",
          "type": "address"
        },
        {
          "internalType": "bool",
          "name": "complete",
          "type": "bool"
        },
        {
          "internalType": "uint256",
          "name": "approvalCount",
          "type": "uint256"
        }
      ],
      "stateMutability": "view",
      "type": "function"
    },
    {
      "inputs": [],
      "name": "requestsCount",
      "outputs": [
        {
          "internalType": "uint256",
          "name": "",
          "type": "uint256"
        }
      ],
      "stateMutability": "view",
      "type": "function"
    }
  ],
  "devdoc": {
    "kind": "dev",
    "methods": {},
    "version": 1
  },
  "evm": {
    "assembly": "    /* \"Campaign.sol\":840:4352  contract Campaign {... */\n  mstore(0x40, 0x80)\n    /* \"Campaign.sol\":1563:1682  constructor(uint256 minimum, address creator) {... */\n  callvalue\n  dup1\n  iszero\n  tag_1\n  jumpi\n  0x00\n  dup1\n  revert\ntag_1:\n  pop\n  mload(0x40)\n  sub(codesize, bytecodeSize)\n  dup1\n  bytecodeSize\n  dup4\n  codecopy\n  dup2\n  dup2\n  add\n  0x40\n  mstore\n  dup2\n  add\n  swap1\n  tag_2\n  swap2\n  swap1\n  tag_3\n  jump\t// in\ntag_2:\n    /* \"Campaign.sol\":1629:1636  creator */\n  dup1\n    /* \"Campaign.sol\":1619:1626  manager */\n  0x02\n  0x00\n    /* \"Campaign.sol\":1619:1636  manager = creator */\n  0x0100\n  exp\n  dup2\n  sload\n  dup2\n  0xffffffffffffffffffffffffffffffffffffffff\n  mul\n  not\n  and\n  swap1\n  dup4\n  0xffffffffffffffffffffffffffffffffffffffff\n  and\n  mul\n  or\n  swap1\n  sstore\n  pop\n    /* \"Campaign.sol\":1668:1675  minimum */\n  dup2\n    /* \"Campaign.sol\":1646:1665  minimumContribution */\n  0x03\n    /* \"Campaign.sol\":1646:1675  minimumContribution = minimum */\n  dup2\n  swap1\n  sstore\n  pop\n    /* \"Campaign.sol\":1563:1682  constructor(uint256 minimum, address creator) {... */\n  pop\n  pop\n    /* \"Campaign.sol\":840:4352  contract Campaign {... */\n  jump(tag_6)\n    /* \"#utility.yul\":88:205   */\ntag_8:\n    /* \"#utility.yul\":197:198   */\n  0x00\n    /* \"#utility.yul\":194:195   */\n  dup1\n    /* \"#utility.yul\":187:199   */\n  revert\n    /* \"#utility.yul\":334:411   */\ntag_10:\n    /* \"#utility.yul\":371:378   */\n  0x00\n    /* \"#utility.yul\":400:405   */\n  dup2\n    /* \"#utility.yul\":389:405   */\n  swap1\n  pop\n    /* \"#utility.yul\":334:411   */\n  swap2\n  swap1\n  pop\n  jump\t// out\n    /* \"#utility.yul\":417:539   */\ntag_11:\n    /* \"#utility.yul\":490:514   */\n  tag_23\n    /* \"#utility.yul\":508:513   */\n  dup2\n    /* \"#utility.yul\":490:514   */\n  tag_10\n  jump\t// in\ntag_23:\n    /* \"#utility.yul\":483:488   */\n  dup2\n    /* \"#utility.yul\":480:515   */\n  eq\n    /* \"#utility.yul\":470:533   */\n  tag_24\n  jumpi\n    /* \"#utility.yul\":529:530   */\n  0x00\n    /* \"#utility.yul\":526:527   */\n  dup1\n    /* \"#utility.yul\":519:531   */\n  revert\n    /* \"#utility.yul\":470:533   */\ntag_24:\n    /* \"#utility.yul\":417:539   */\n  pop\n  jump\t// out\n    /* \"#utility.yul\":545:688   */\ntag_12:\n    /* \"#utility.yul\":602:607   */\n  0x00\n    /* \"#utility.yul\":633:639   */\n  dup2\n    /* \"#utility.yul\":627:640   */\n  mload\n    /* \"#utility.yul\":618:640   */\n  swap1\n  pop\n    /* \"#utility.yul\":649:682   */\n  tag_26\n    /* \"#utility.yul\":676:681   */\n  dup2\n    /* \"#utility.yul\":649:682   */\n  tag_11\n  jump\t// in\ntag_26:\n    /* \"#utility.yul\":545:688   */\n  swap3\n  swap2\n  pop\n  pop\n  jump\t// out\n    /* \"#utility.yul\":694:820   */\ntag_13:\n    /* \"#utility.yul\":731:738   */\n  0x00\n    /* \"#utility.yul\":771:813   */\n  0xffffffffffffffffffffffffffffffffffffffff\n    /* \"#utility.yul\":764:769   */\n  dup3\n    /* \"#utility.yul\":760:814   */\n  and\n    /* \"#utility.yul\":749:814   */\n  swap1\n  pop\n    /* \"#utility.yul\":694:820   */\n  swap2\n  swap1\n  pop\n  jump\t// out\n    /* \"#utility.yul\":826:922   */\ntag_14:\n    /* \"#utility.yul\":863:870   */\n  0x00\n    /* \"#utility.yul\":892:916   */\n  tag_29\n    /* \"#utility.yul\":910:915   */\n  dup3\n    /* \"#utility.yul\":892:916   */\n  tag_13\n  jump\t// in\ntag_29:\n    /* \"#utility.yul\":881:916   */\n  swap1\n  pop\n    /* \"#utility.yul\":826:922   */\n  swap2\n  swap1\n  pop\n  jump\t// out\n    /* \"#utility.yul\":928:1050   */\ntag_15:\n    /* \"#utility.yul\":1001:1025   */\n  tag_31\n    /* \"#utility.yul\":1019:1024   */\n  dup2\n    /* \"#utility.yul\":1001:1025   */\n  tag_14\n  jump\t// in\ntag_31:\n    /* \"#utility.yul\":994:999   */\n  dup2\n    /* \"#utility.yul\":991:1026   */\n  eq\n    /* \"#utility.yul\":981:1044   */\n  tag_32\n  jumpi\n    /* \"#utility.yul\":1040:1041   */\n  0x00\n    /* \"#utility.yul\":1037:1038   */\n  dup1\n    /* \"#utility.yul\":1030:1042   */\n  revert\n    /* \"#utility.yul\":981:1044   */\ntag_32:\n    /* \"#utility.yul\":928:1050   */\n  pop\n  jump\t// out\n    /* \"#utility.yul\":1056:1199   */\ntag_16:\n    /* \"#utility.yul\":1113:1118   */\n  0x00\n    /* \"#utility.yul\":1144:1150   */\n  dup2\n    /* \"#utility.yul\":1138:1151   */\n  mload\n    /* \"#utility.yul\":1129:1151   */\n  swap1\n  pop\n    /* \"#utility.yul\":1160:1193   */\n  tag_34\n    /* \"#utility.yul\":1187:1192   */\n  dup2\n    /* \"#utility.yul\":1160:1193   */\n  tag_15\n  jump\t// in\ntag_34:\n    /* \"#utility.yul\":1056:1199   */\n  swap3\n  swap2\n  pop\n  pop\n  jump\t// out\n    /* \"#utility.yul\":1205:1712   */\ntag_3:\n    /* \"#utility.yul\":1284:1290   */\n  0x00\n    /* \"#utility.yul\":1292:1298   */\n  dup1\n    /* \"#utility.yul\":1341:1343   */\n  0x40\n    /* \"#utility.yul\":1329:1338   */\n  dup4\n    /* \"#utility.yul\":1320:1327   */\n  dup6\n    /* \"#utility.yul\":1316:1339   */\n  sub\n    /* \"#utility.yul\":1312:1344   */\n  slt\n    /* \"#utility.yul\":1309:1428   */\n  iszero\n  tag_36\n  jumpi\n    /* \"#utility.yul\":1347:1426   */\n  tag_37\n  tag_8\n  jump\t// in\ntag_37:\n    /* \"#utility.yul\":1309:1428   */\ntag_36:\n    /* \"#utility.yul\":1467:1468   */\n  0x00\n    /* \"#utility.yul\":1492:1556   */\n  tag_38\n    /* \"#utility.yul\":1548:1555   */\n  dup6\n    /* \"#utility.yul\":1539:1545   */\n  dup3\n    /* \"#utility.yul\":1528:1537   */\n  dup7\n    /* \"#utility.yul\":1524:1546   */\n  add\n    /* \"#utility.yul\":1492:1556   */\n  tag_12\n  jump\t// in\ntag_38:\n    /* \"#utility.yul\":1482:1556   */\n  swap3\n  pop\n    /* \"#utility.yul\":1438:1566   */\n  pop\n    /* \"#utility.yul\":1605:1607   */\n  0x20\n    /* \"#utility.yul\":1631:1695   */\n  tag_39\n    /* \"#utility.yul\":1687:1694   */\n  dup6\n    /* \"#utility.yul\":1678:1684   */\n  dup3\n    /* \"#utility.yul\":1667:1676   */\n  dup7\n    /* \"#utility.yul\":1663:1685   */\n  add\n    /* \"#utility.yul\":1631:1695   */\n  tag_16\n  jump\t// in\ntag_39:\n    /* \"#utility.yul\":1621:1695   */\n  swap2\n  pop\n    /* \"#utility.yul\":1576:1705   */\n  pop\n    /* \"#utility.yul\":1205:1712   */\n  swap3\n  pop\n  swap3\n  swap1\n  pop\n  jump\t// out\n    /* \"Campaign.sol\":840:4352  contract Campaign {... */\ntag_6:\n  dataSize(sub_0)\n  dup1\n  dataOffset(sub_0)\n  0x00\n  codecopy\n  0x00\n  return\nstop\n\nsub_0: assembly {\n        /* \"Campaign.sol\":840:4352  contract Campaign {... */\n      mstore(0x40, 0x80)\n      jumpi(tag_1, lt(calldatasize, 0x04))\n      shr(0xe0, calldataload(0x00))\n      dup1\n      0x82fde093\n      gt\n      tag_13\n      jumpi\n      dup1\n      0x82fde093\n      eq\n      tag_7\n      jumpi\n      dup1\n      0x8a9cfd55\n      eq\n      tag_8\n      jumpi\n      dup1\n      0x937e09b1\n      eq\n      tag_9\n      jumpi\n      dup1\n      0xd7bb99ba\n      eq\n      tag_10\n      jumpi\n      dup1\n      0xd7d1bbdb\n      eq\n      tag_11\n      jumpi\n      dup1\n      0xfbfa4b7f\n      eq\n      tag_12\n      jumpi\n      jump(tag_1)\n    tag_13:\n      dup1\n      0x03441006\n      eq\n      tag_2\n      jumpi\n      dup1\n      0x0a144391\n      eq\n      tag_3\n      jumpi\n      dup1\n      0x4051ddac\n      eq\n      tag_4\n      jumpi\n      dup1\n      0x481c6a75\n      eq\n      tag_5\n      jumpi\n      dup1\n      0x81d12c58\n      eq\n      tag_6\n      jumpi\n    tag_1:\n      0x00\n      dup1\n      revert\n        /* \"Campaign.sol\":3395:3978  function finalizeRequest(uint256 index) external restricted {... */\n    tag_2:\n      callvalue\n      dup1\n      iszero\n      tag_14\n      jumpi\n      0x00\n      dup1\n      revert\n    tag_14:\n      pop\n      tag_15\n      0x04\n      dup1\n      calldatasize\n      sub\n      dup2\n      add\n      swap1\n      tag_16\n      swap2\n      swap1\n      tag_17\n      jump\t// in\n    tag_16:\n      tag_18\n      jump\t// in\n    tag_15:\n      stop\n        /* \"Campaign.sol\":1480:1521  mapping(address => bool) public approvers */\n    tag_3:\n      callvalue\n      dup1\n      iszero\n      tag_19\n      jumpi\n      0x00\n      dup1\n      revert\n    tag_19:\n      pop\n      tag_20\n      0x04\n      dup1\n      calldatasize\n      sub\n      dup2\n      add\n      swap1\n      tag_21\n      swap2\n      swap1\n      tag_22\n      jump\t// in\n    tag_21:\n      tag_23\n      jump\t// in\n    tag_20:\n      mload(0x40)\n      tag_24\n      swap2\n      swap1\n      tag_25\n      jump\t// in\n    tag_24:\n      mload(0x40)\n      dup1\n      swap2\n      sub\n      swap1\n      return\n        /* \"Campaign.sol\":3984:4350  function getSummary()... */\n    tag_4:\n      callvalue\n      dup1\n      iszero\n      tag_26\n      jumpi\n      0x00\n      dup1\n      revert\n    tag_26:\n      pop\n      tag_27\n      tag_28\n      jump\t// in\n    tag_27:\n      mload(0x40)\n      tag_29\n      swap6\n      swap5\n      swap4\n      swap3\n      swap2\n      swap1\n      tag_30\n      jump\t// in\n    tag_29:\n      mload(0x40)\n      dup1\n      swap2\n      sub\n      swap1\n      return\n        /* \"Campaign.sol\":1283:1305  address public manager */\n    tag_5:\n      callvalue\n      dup1\n      iszero\n      tag_31\n      jumpi\n      0x00\n      dup1\n      revert\n    tag_31:\n      pop\n      tag_32\n      tag_33\n      jump\t// in\n    tag_32:\n      mload(0x40)\n      tag_34\n      swap2\n      swap1\n      tag_35\n      jump\t// in\n    tag_34:\n      mload(0x40)\n      dup1\n      swap2\n      sub\n      swap1\n      return\n        /* \"Campaign.sol\":1233:1276  mapping(uint256 => Request) public requests */\n    tag_6:\n      callvalue\n      dup1\n      iszero\n      tag_36\n      jumpi\n      0x00\n      dup1\n      revert\n    tag_36:\n      pop\n      tag_37\n      0x04\n      dup1\n      calldatasize\n      sub\n      dup2\n      add\n      swap1\n      tag_38\n      swap2\n      swap1\n      tag_17\n      jump\t// in\n    tag_38:\n      tag_39\n      jump\t// in\n    tag_37:\n      mload(0x40)\n      tag_40\n      swap6\n      swap5\n      swap4\n      swap3\n      swap2\n      swap1\n      tag_41\n      jump\t// in\n    tag_40:\n      mload(0x40)\n      dup1\n      swap2\n      sub\n      swap1\n      return\n        /* \"Campaign.sol\":1527:1556  uint256 public approversCount */\n    tag_7:\n      callvalue\n      dup1\n      iszero\n      tag_42\n      jumpi\n      0x00\n      dup1\n      revert\n    tag_42:\n      pop\n      tag_43\n      tag_44\n      jump\t// in\n    tag_43:\n      mload(0x40)\n      tag_45\n      swap2\n      swap1\n      tag_46\n      jump\t// in\n    tag_45:\n      mload(0x40)\n      dup1\n      swap2\n      sub\n      swap1\n      return\n        /* \"Campaign.sol\":2251:2609  function createRequest(... */\n    tag_8:\n      callvalue\n      dup1\n      iszero\n      tag_47\n      jumpi\n      0x00\n      dup1\n      revert\n    tag_47:\n      pop\n      tag_48\n      0x04\n      dup1\n      calldatasize\n      sub\n      dup2\n      add\n      swap1\n      tag_49\n      swap2\n      swap1\n      tag_50\n      jump\t// in\n    tag_49:\n      tag_51\n      jump\t// in\n    tag_48:\n      stop\n        /* \"Campaign.sol\":1360:1394  uint256 public minimumContribution */\n    tag_9:\n      callvalue\n      dup1\n      iszero\n      tag_52\n      jumpi\n      0x00\n      dup1\n      revert\n    tag_52:\n      pop\n      tag_53\n      tag_54\n      jump\t// in\n    tag_53:\n      mload(0x40)\n      tag_55\n      swap2\n      swap1\n      tag_46\n      jump\t// in\n    tag_55:\n      mload(0x40)\n      dup1\n      swap2\n      sub\n      swap1\n      return\n        /* \"Campaign.sol\":1932:2168  function contribute() external payable {... */\n    tag_10:\n      tag_56\n      tag_57\n      jump\t// in\n    tag_56:\n      stop\n        /* \"Campaign.sol\":2615:3312  function approveRequest(uint256 index) external {... */\n    tag_11:\n      callvalue\n      dup1\n      iszero\n      tag_58\n      jumpi\n      0x00\n      dup1\n      revert\n    tag_58:\n      pop\n      tag_59\n      0x04\n      dup1\n      calldatasize\n      sub\n      dup2\n      add\n      swap1\n      tag_60\n      swap2\n      swap1\n      tag_17\n      jump\t// in\n    tag_60:\n      tag_61\n      jump\t// in\n    tag_59:\n      stop\n        /* \"Campaign.sol\":1199:1227  uint256 public requestsCount */\n    tag_12:\n      callvalue\n      dup1\n      iszero\n      tag_62\n      jumpi\n      0x00\n      dup1\n      revert\n    tag_62:\n      pop\n      tag_63\n      tag_64\n      jump\t// in\n    tag_63:\n      mload(0x40)\n      tag_65\n      swap2\n      swap1\n      tag_46\n      jump\t// in\n    tag_65:\n      mload(0x40)\n      dup1\n      swap2\n      sub\n      swap1\n      return\n        /* \"Campaign.sol\":3395:3978  function finalizeRequest(uint256 index) external restricted {... */\n    tag_18:\n        /* \"Campaign.sol\":1742:1749  manager */\n      0x02\n      0x00\n      swap1\n      sload\n      swap1\n      0x0100\n      exp\n      swap1\n      div\n      0xffffffffffffffffffffffffffffffffffffffff\n      and\n        /* \"Campaign.sol\":1728:1749  msg.sender == manager */\n      0xffffffffffffffffffffffffffffffffffffffff\n      and\n        /* \"Campaign.sol\":1728:1738  msg.sender */\n      caller\n        /* \"Campaign.sol\":1728:1749  msg.sender == manager */\n      0xffffffffffffffffffffffffffffffffffffffff\n      and\n      eq\n        /* \"Campaign.sol\":1720:1750  require(msg.sender == manager) */\n      tag_67\n      jumpi\n      0x00\n      dup1\n      revert\n    tag_67:\n        /* \"Campaign.sol\":3465:3488  Request storage request */\n      0x00\n        /* \"Campaign.sol\":3491:3499  requests */\n      0x01\n        /* \"Campaign.sol\":3491:3506  requests[index] */\n      0x00\n        /* \"Campaign.sol\":3500:3505  index */\n      dup4\n        /* \"Campaign.sol\":3491:3506  requests[index] */\n      dup2\n      mstore\n      0x20\n      add\n      swap1\n      dup2\n      mstore\n      0x20\n      add\n      0x00\n      keccak256\n        /* \"Campaign.sol\":3465:3506  Request storage request = requests[index] */\n      swap1\n      pop\n        /* \"Campaign.sol\":3576:3583  request */\n      dup1\n        /* \"Campaign.sol\":3576:3592  request.complete */\n      0x02\n      add\n      0x14\n      swap1\n      sload\n      swap1\n      0x0100\n      exp\n      swap1\n      div\n      0xff\n      and\n        /* \"Campaign.sol\":3575:3592  !request.complete */\n      iszero\n        /* \"Campaign.sol\":3567:3593  require(!request.complete) */\n      tag_69\n      jumpi\n      0x00\n      dup1\n      revert\n    tag_69:\n        /* \"Campaign.sol\":3787:3788  2 */\n      0x02\n        /* \"Campaign.sol\":3770:3784  approversCount */\n      sload(0x05)\n        /* \"Campaign.sol\":3770:3788  approversCount / 2 */\n      tag_70\n      swap2\n      swap1\n      tag_71\n      jump\t// in\n    tag_70:\n        /* \"Campaign.sol\":3745:3752  request */\n      dup2\n        /* \"Campaign.sol\":3745:3766  request.approvalCount */\n      0x03\n      add\n      sload\n        /* \"Campaign.sol\":3745:3789  request.approvalCount > (approversCount / 2) */\n      gt\n        /* \"Campaign.sol\":3737:3790  require(request.approvalCount > (approversCount / 2)) */\n      tag_72\n      jumpi\n      0x00\n      dup1\n      revert\n    tag_72:\n        /* \"Campaign.sol\":3853:3860  request */\n      dup1\n        /* \"Campaign.sol\":3853:3870  request.recipient */\n      0x02\n      add\n      0x00\n      swap1\n      sload\n      swap1\n      0x0100\n      exp\n      swap1\n      div\n      0xffffffffffffffffffffffffffffffffffffffff\n      and\n        /* \"Campaign.sol\":3853:3879  request.recipient.transfer */\n      0xffffffffffffffffffffffffffffffffffffffff\n      and\n        /* \"Campaign.sol\":3853:3894  request.recipient.transfer(request.value) */\n      0x08fc\n        /* \"Campaign.sol\":3880:3887  request */\n      dup3\n        /* \"Campaign.sol\":3880:3893  request.value */\n      0x01\n      add\n      sload\n        /* \"Campaign.sol\":3853:3894  request.recipient.transfer(request.value) */\n      swap1\n      dup2\n      iszero\n      mul\n      swap1\n      mload(0x40)\n      0x00\n      mload(0x40)\n      dup1\n      dup4\n      sub\n      dup2\n      dup6\n      dup9\n      dup9\n      call\n      swap4\n      pop\n      pop\n      pop\n      pop\n      iszero\n      dup1\n      iszero\n      tag_74\n      jumpi\n      returndatasize\n      0x00\n      dup1\n      returndatacopy\n      revert(0x00, returndatasize)\n    tag_74:\n      pop\n        /* \"Campaign.sol\":3967:3971  true */\n      0x01\n        /* \"Campaign.sol\":3948:3955  request */\n      dup2\n        /* \"Campaign.sol\":3948:3964  request.complete */\n      0x02\n      add\n      0x14\n        /* \"Campaign.sol\":3948:3971  request.complete = true */\n      0x0100\n      exp\n      dup2\n      sload\n      dup2\n      0xff\n      mul\n      not\n      and\n      swap1\n      dup4\n      iszero\n      iszero\n      mul\n      or\n      swap1\n      sstore\n      pop\n        /* \"Campaign.sol\":3455:3978  {... */\n      pop\n        /* \"Campaign.sol\":3395:3978  function finalizeRequest(uint256 index) external restricted {... */\n      pop\n      jump\t// out\n        /* \"Campaign.sol\":1480:1521  mapping(address => bool) public approvers */\n    tag_23:\n      mstore(0x20, 0x04)\n      dup1\n      0x00\n      mstore\n      keccak256(0x00, 0x40)\n      0x00\n      swap2\n      pop\n      sload\n      swap1\n      0x0100\n      exp\n      swap1\n      div\n      0xff\n      and\n      dup2\n      jump\t// out\n        /* \"Campaign.sol\":3984:4350  function getSummary()... */\n    tag_28:\n        /* \"Campaign.sol\":4066:4073  uint256 */\n      0x00\n        /* \"Campaign.sol\":4087:4094  uint256 */\n      dup1\n        /* \"Campaign.sol\":4108:4115  uint256 */\n      0x00\n        /* \"Campaign.sol\":4129:4136  uint256 */\n      dup1\n        /* \"Campaign.sol\":4150:4157  address */\n      0x00\n        /* \"Campaign.sol\":4203:4222  minimumContribution */\n      sload(0x03)\n        /* \"Campaign.sol\":4236:4257  address(this).balance */\n      selfbalance\n        /* \"Campaign.sol\":4271:4284  requestsCount */\n      sload(0x00)\n        /* \"Campaign.sol\":4298:4312  approversCount */\n      sload(0x05)\n        /* \"Campaign.sol\":4326:4333  manager */\n      0x02\n      0x00\n      swap1\n      sload\n      swap1\n      0x0100\n      exp\n      swap1\n      div\n      0xffffffffffffffffffffffffffffffffffffffff\n      and\n        /* \"Campaign.sol\":4182:4343  return (... */\n      swap5\n      pop\n      swap5\n      pop\n      swap5\n      pop\n      swap5\n      pop\n      swap5\n      pop\n        /* \"Campaign.sol\":3984:4350  function getSummary()... */\n      swap1\n      swap2\n      swap3\n      swap4\n      swap5\n      jump\t// out\n        /* \"Campaign.sol\":1283:1305  address public manager */\n    tag_33:\n      0x02\n      0x00\n      swap1\n      sload\n      swap1\n      0x0100\n      exp\n      swap1\n      div\n      0xffffffffffffffffffffffffffffffffffffffff\n      and\n      dup2\n      jump\t// out\n        /* \"Campaign.sol\":1233:1276  mapping(uint256 => Request) public requests */\n    tag_39:\n      mstore(0x20, 0x01)\n      dup1\n      0x00\n      mstore\n      keccak256(0x00, 0x40)\n      0x00\n      swap2\n      pop\n      swap1\n      pop\n      dup1\n      0x00\n      add\n      dup1\n      sload\n      tag_76\n      swap1\n      tag_77\n      jump\t// in\n    tag_76:\n      dup1\n      0x1f\n      add\n      0x20\n      dup1\n      swap2\n      div\n      mul\n      0x20\n      add\n      mload(0x40)\n      swap1\n      dup2\n      add\n      0x40\n      mstore\n      dup1\n      swap3\n      swap2\n      swap1\n      dup2\n      dup2\n      mstore\n      0x20\n      add\n      dup3\n      dup1\n      sload\n      tag_78\n      swap1\n      tag_77\n      jump\t// in\n    tag_78:\n      dup1\n      iszero\n      tag_79\n      jumpi\n      dup1\n      0x1f\n      lt\n      tag_80\n      jumpi\n      0x0100\n      dup1\n      dup4\n      sload\n      div\n      mul\n      dup4\n      mstore\n      swap2\n      0x20\n      add\n      swap2\n      jump(tag_79)\n    tag_80:\n      dup3\n      add\n      swap2\n      swap1\n      0x00\n      mstore\n      keccak256(0x00, 0x20)\n      swap1\n    tag_81:\n      dup2\n      sload\n      dup2\n      mstore\n      swap1\n      0x01\n      add\n      swap1\n      0x20\n      add\n      dup1\n      dup4\n      gt\n      tag_81\n      jumpi\n      dup3\n      swap1\n      sub\n      0x1f\n      and\n      dup3\n      add\n      swap2\n    tag_79:\n      pop\n      pop\n      pop\n      pop\n      pop\n      swap1\n      dup1\n      0x01\n      add\n      sload\n      swap1\n      dup1\n      0x02\n      add\n      0x00\n      swap1\n      sload\n      swap1\n      0x0100\n      exp\n      swap1\n      div\n      0xffffffffffffffffffffffffffffffffffffffff\n      and\n      swap1\n      dup1\n      0x02\n      add\n      0x14\n      swap1\n      sload\n      swap1\n      0x0100\n      exp\n      swap1\n      div\n      0xff\n      and\n      swap1\n      dup1\n      0x03\n      add\n      sload\n      swap1\n      pop\n      dup6\n      jump\t// out\n        /* \"Campaign.sol\":1527:1556  uint256 public approversCount */\n    tag_44:\n      sload(0x05)\n      dup2\n      jump\t// out\n        /* \"Campaign.sol\":2251:2609  function createRequest(... */\n    tag_51:\n        /* \"Campaign.sol\":1742:1749  manager */\n      0x02\n      0x00\n      swap1\n      sload\n      swap1\n      0x0100\n      exp\n      swap1\n      div\n      0xffffffffffffffffffffffffffffffffffffffff\n      and\n        /* \"Campaign.sol\":1728:1749  msg.sender == manager */\n      0xffffffffffffffffffffffffffffffffffffffff\n      and\n        /* \"Campaign.sol\":1728:1738  msg.sender */\n      caller\n        /* \"Campaign.sol\":1728:1749  msg.sender == manager */\n      0xffffffffffffffffffffffffffffffffffffffff\n      and\n      eq\n        /* \"Campaign.sol\":1720:1750  require(msg.sender == manager) */\n      tag_83\n      jumpi\n      0x00\n      dup1\n      revert\n    tag_83:\n        /* \"Campaign.sol\":2405:2422  Request storage r */\n      0x00\n        /* \"Campaign.sol\":2425:2433  requests */\n      0x01\n        /* \"Campaign.sol\":2425:2450  requests[requestsCount++] */\n      0x00\n        /* \"Campaign.sol\":2434:2447  requestsCount */\n      dup1\n      0x00\n        /* \"Campaign.sol\":2434:2449  requestsCount++ */\n      dup2\n      sload\n      dup1\n      swap3\n      swap2\n      swap1\n      tag_85\n      swap1\n      tag_86\n      jump\t// in\n    tag_85:\n      swap2\n      swap1\n      pop\n      sstore\n        /* \"Campaign.sol\":2425:2450  requests[requestsCount++] */\n      dup2\n      mstore\n      0x20\n      add\n      swap1\n      dup2\n      mstore\n      0x20\n      add\n      0x00\n      keccak256\n        /* \"Campaign.sol\":2405:2450  Request storage r = requests[requestsCount++] */\n      swap1\n      pop\n        /* \"Campaign.sol\":2476:2487  description */\n      dup5\n      dup5\n        /* \"Campaign.sol\":2460:2461  r */\n      dup3\n        /* \"Campaign.sol\":2460:2473  r.description */\n      0x00\n      add\n        /* \"Campaign.sol\":2460:2487  r.description = description */\n      swap2\n      swap1\n      tag_87\n      swap3\n      swap2\n      swap1\n      tag_88\n      jump\t// in\n    tag_87:\n      pop\n        /* \"Campaign.sol\":2507:2512  value */\n      dup3\n        /* \"Campaign.sol\":2497:2498  r */\n      dup2\n        /* \"Campaign.sol\":2497:2504  r.value */\n      0x01\n      add\n        /* \"Campaign.sol\":2497:2512  r.value = value */\n      dup2\n      swap1\n      sstore\n      pop\n        /* \"Campaign.sol\":2536:2545  recipient */\n      dup2\n        /* \"Campaign.sol\":2522:2523  r */\n      dup2\n        /* \"Campaign.sol\":2522:2533  r.recipient */\n      0x02\n      add\n      0x00\n        /* \"Campaign.sol\":2522:2545  r.recipient = recipient */\n      0x0100\n      exp\n      dup2\n      sload\n      dup2\n      0xffffffffffffffffffffffffffffffffffffffff\n      mul\n      not\n      and\n      swap1\n      dup4\n      0xffffffffffffffffffffffffffffffffffffffff\n      and\n      mul\n      or\n      swap1\n      sstore\n      pop\n        /* \"Campaign.sol\":2568:2573  false */\n      0x00\n        /* \"Campaign.sol\":2555:2556  r */\n      dup2\n        /* \"Campaign.sol\":2555:2565  r.complete */\n      0x02\n      add\n      0x14\n        /* \"Campaign.sol\":2555:2573  r.complete = false */\n      0x0100\n      exp\n      dup2\n      sload\n      dup2\n      0xff\n      mul\n      not\n      and\n      swap1\n      dup4\n      iszero\n      iszero\n      mul\n      or\n      swap1\n      sstore\n      pop\n        /* \"Campaign.sol\":2601:2602  0 */\n      0x00\n        /* \"Campaign.sol\":2583:2584  r */\n      dup2\n        /* \"Campaign.sol\":2583:2598  r.approvalCount */\n      0x03\n      add\n        /* \"Campaign.sol\":2583:2602  r.approvalCount = 0 */\n      dup2\n      swap1\n      sstore\n      pop\n        /* \"Campaign.sol\":2395:2609  {... */\n      pop\n        /* \"Campaign.sol\":2251:2609  function createRequest(... */\n      pop\n      pop\n      pop\n      pop\n      jump\t// out\n        /* \"Campaign.sol\":1360:1394  uint256 public minimumContribution */\n    tag_54:\n      sload(0x03)\n      dup2\n      jump\t// out\n        /* \"Campaign.sol\":1932:2168  function contribute() external payable {... */\n    tag_57:\n        /* \"Campaign.sol\":2001:2020  minimumContribution */\n      sload(0x03)\n        /* \"Campaign.sol\":1989:1998  msg.value */\n      callvalue\n        /* \"Campaign.sol\":1989:2020  msg.value > minimumContribution */\n      gt\n        /* \"Campaign.sol\":1981:2021  require(msg.value > minimumContribution) */\n      tag_90\n      jumpi\n      0x00\n      dup1\n      revert\n    tag_90:\n        /* \"Campaign.sol\":2131:2135  true */\n      0x01\n        /* \"Campaign.sol\":2107:2116  approvers */\n      0x04\n        /* \"Campaign.sol\":2107:2128  approvers[msg.sender] */\n      0x00\n        /* \"Campaign.sol\":2117:2127  msg.sender */\n      caller\n        /* \"Campaign.sol\":2107:2128  approvers[msg.sender] */\n      0xffffffffffffffffffffffffffffffffffffffff\n      and\n      0xffffffffffffffffffffffffffffffffffffffff\n      and\n      dup2\n      mstore\n      0x20\n      add\n      swap1\n      dup2\n      mstore\n      0x20\n      add\n      0x00\n      keccak256\n      0x00\n        /* \"Campaign.sol\":2107:2135  approvers[msg.sender] = true */\n      0x0100\n      exp\n      dup2\n      sload\n      dup2\n      0xff\n      mul\n      not\n      and\n      swap1\n      dup4\n      iszero\n      iszero\n      mul\n      or\n      swap1\n      sstore\n      pop\n        /* \"Campaign.sol\":2145:2159  approversCount */\n      0x05\n      0x00\n        /* \"Campaign.sol\":2145:2161  approversCount++ */\n      dup2\n      sload\n      dup1\n      swap3\n      swap2\n      swap1\n      tag_91\n      swap1\n      tag_86\n      jump\t// in\n    tag_91:\n      swap2\n      swap1\n      pop\n      sstore\n      pop\n        /* \"Campaign.sol\":1932:2168  function contribute() external payable {... */\n      jump\t// out\n        /* \"Campaign.sol\":2615:3312  function approveRequest(uint256 index) external {... */\n    tag_61:\n        /* \"Campaign.sol\":2875:2898  Request storage request */\n      0x00\n        /* \"Campaign.sol\":2901:2909  requests */\n      0x01\n        /* \"Campaign.sol\":2901:2916  requests[index] */\n      0x00\n        /* \"Campaign.sol\":2910:2915  index */\n      dup4\n        /* \"Campaign.sol\":2901:2916  requests[index] */\n      dup2\n      mstore\n      0x20\n      add\n      swap1\n      dup2\n      mstore\n      0x20\n      add\n      0x00\n      keccak256\n        /* \"Campaign.sol\":2875:2916  Request storage request = requests[index] */\n      swap1\n      pop\n        /* \"Campaign.sol\":3154:3163  approvers */\n      0x04\n        /* \"Campaign.sol\":3154:3175  approvers[msg.sender] */\n      0x00\n        /* \"Campaign.sol\":3164:3174  msg.sender */\n      caller\n        /* \"Campaign.sol\":3154:3175  approvers[msg.sender] */\n      0xffffffffffffffffffffffffffffffffffffffff\n      and\n      0xffffffffffffffffffffffffffffffffffffffff\n      and\n      dup2\n      mstore\n      0x20\n      add\n      swap1\n      dup2\n      mstore\n      0x20\n      add\n      0x00\n      keccak256\n      0x00\n      swap1\n      sload\n      swap1\n      0x0100\n      exp\n      swap1\n      div\n      0xff\n      and\n        /* \"Campaign.sol\":3146:3176  require(approvers[msg.sender]) */\n      tag_93\n      jumpi\n      0x00\n      dup1\n      revert\n    tag_93:\n        /* \"Campaign.sol\":3195:3202  request */\n      dup1\n        /* \"Campaign.sol\":3195:3212  request.approvals */\n      0x04\n      add\n        /* \"Campaign.sol\":3195:3224  request.approvals[msg.sender] */\n      0x00\n        /* \"Campaign.sol\":3213:3223  msg.sender */\n      caller\n        /* \"Campaign.sol\":3195:3224  request.approvals[msg.sender] */\n      0xffffffffffffffffffffffffffffffffffffffff\n      and\n      0xffffffffffffffffffffffffffffffffffffffff\n      and\n      dup2\n      mstore\n      0x20\n      add\n      swap1\n      dup2\n      mstore\n      0x20\n      add\n      0x00\n      keccak256\n      0x00\n      swap1\n      sload\n      swap1\n      0x0100\n      exp\n      swap1\n      div\n      0xff\n      and\n        /* \"Campaign.sol\":3194:3224  !request.approvals[msg.sender] */\n      iszero\n        /* \"Campaign.sol\":3186:3225  require(!request.approvals[msg.sender]) */\n      tag_94\n      jumpi\n      0x00\n      dup1\n      revert\n    tag_94:\n        /* \"Campaign.sol\":3268:3272  true */\n      0x01\n        /* \"Campaign.sol\":3236:3243  request */\n      dup2\n        /* \"Campaign.sol\":3236:3253  request.approvals */\n      0x04\n      add\n        /* \"Campaign.sol\":3236:3265  request.approvals[msg.sender] */\n      0x00\n        /* \"Campaign.sol\":3254:3264  msg.sender */\n      caller\n        /* \"Campaign.sol\":3236:3265  request.approvals[msg.sender] */\n      0xffffffffffffffffffffffffffffffffffffffff\n      and\n      0xffffffffffffffffffffffffffffffffffffffff\n      and\n      dup2\n      mstore\n      0x20\n      add\n      swap1\n      dup2\n      mstore\n      0x20\n      add\n      0x00\n      keccak256\n      0x00\n        /* \"Campaign.sol\":3236:3272  request.approvals[msg.sender] = true */\n      0x0100\n      exp\n      dup2\n      sload\n      dup2\n      0xff\n      mul\n      not\n      and\n      swap1\n      dup4\n      iszero\n      iszero\n      mul\n      or\n      swap1\n      sstore\n      pop\n        /* \"Campaign.sol\":3282:3289  request */\n      dup1\n        /* \"Campaign.sol\":3282:3303  request.approvalCount */\n      0x03\n      add\n      0x00\n        /* \"Campaign.sol\":3282:3305  request.approvalCount++ */\n      dup2\n      sload\n      dup1\n      swap3\n      swap2\n      swap1\n      tag_95\n      swap1\n      tag_86\n      jump\t// in\n    tag_95:\n      swap2\n      swap1\n      pop\n      sstore\n      pop\n        /* \"Campaign.sol\":2663:3312  {... */\n      pop\n        /* \"Campaign.sol\":2615:3312  function approveRequest(uint256 index) external {... */\n      pop\n      jump\t// out\n        /* \"Campaign.sol\":1199:1227  uint256 public requestsCount */\n    tag_64:\n      sload(0x00)\n      dup2\n      jump\t// out\n    tag_88:\n      dup3\n      dup1\n      sload\n      tag_96\n      swap1\n      tag_77\n      jump\t// in\n    tag_96:\n      swap1\n      0x00\n      mstore\n      keccak256(0x00, 0x20)\n      swap1\n      0x1f\n      add\n      0x20\n      swap1\n      div\n      dup2\n      add\n      swap3\n      dup3\n      tag_98\n      jumpi\n      0x00\n      dup6\n      sstore\n      jump(tag_97)\n    tag_98:\n      dup3\n      0x1f\n      lt\n      tag_99\n      jumpi\n      dup1\n      calldataload\n      not(0xff)\n      and\n      dup4\n      dup1\n      add\n      or\n      dup6\n      sstore\n      jump(tag_97)\n    tag_99:\n      dup3\n      dup1\n      add\n      0x01\n      add\n      dup6\n      sstore\n      dup3\n      iszero\n      tag_97\n      jumpi\n      swap2\n      dup3\n      add\n    tag_100:\n      dup3\n      dup2\n      gt\n      iszero\n      tag_101\n      jumpi\n      dup3\n      calldataload\n      dup3\n      sstore\n      swap2\n      0x20\n      add\n      swap2\n      swap1\n      0x01\n      add\n      swap1\n      jump(tag_100)\n    tag_101:\n    tag_97:\n      pop\n      swap1\n      pop\n      tag_102\n      swap2\n      swap1\n      tag_103\n      jump\t// in\n    tag_102:\n      pop\n      swap1\n      jump\t// out\n    tag_103:\n    tag_104:\n      dup1\n      dup3\n      gt\n      iszero\n      tag_105\n      jumpi\n      0x00\n      dup2\n      0x00\n      swap1\n      sstore\n      pop\n      0x01\n      add\n      jump(tag_104)\n    tag_105:\n      pop\n      swap1\n      jump\t// out\n        /* \"#utility.yul\":88:205   */\n    tag_107:\n        /* \"#utility.yul\":197:198   */\n      0x00\n        /* \"#utility.yul\":194:195   */\n      dup1\n        /* \"#utility.yul\":187:199   */\n      revert\n        /* \"#utility.yul\":211:328   */\n    tag_108:\n        /* \"#utility.yul\":320:321   */\n      0x00\n        /* \"#utility.yul\":317:318   */\n      dup1\n        /* \"#utility.yul\":310:322   */\n      revert\n        /* \"#utility.yul\":334:411   */\n    tag_109:\n        /* \"#utility.yul\":371:378   */\n      0x00\n        /* \"#utility.yul\":400:405   */\n      dup2\n        /* \"#utility.yul\":389:405   */\n      swap1\n      pop\n        /* \"#utility.yul\":334:411   */\n      swap2\n      swap1\n      pop\n      jump\t// out\n        /* \"#utility.yul\":417:539   */\n    tag_110:\n        /* \"#utility.yul\":490:514   */\n      tag_142\n        /* \"#utility.yul\":508:513   */\n      dup2\n        /* \"#utility.yul\":490:514   */\n      tag_109\n      jump\t// in\n    tag_142:\n        /* \"#utility.yul\":483:488   */\n      dup2\n        /* \"#utility.yul\":480:515   */\n      eq\n        /* \"#utility.yul\":470:533   */\n      tag_143\n      jumpi\n        /* \"#utility.yul\":529:530   */\n      0x00\n        /* \"#utility.yul\":526:527   */\n      dup1\n        /* \"#utility.yul\":519:531   */\n      revert\n        /* \"#utility.yul\":470:533   */\n    tag_143:\n        /* \"#utility.yul\":417:539   */\n      pop\n      jump\t// out\n        /* \"#utility.yul\":545:684   */\n    tag_111:\n        /* \"#utility.yul\":591:596   */\n      0x00\n        /* \"#utility.yul\":629:635   */\n      dup2\n        /* \"#utility.yul\":616:636   */\n      calldataload\n        /* \"#utility.yul\":607:636   */\n      swap1\n      pop\n        /* \"#utility.yul\":645:678   */\n      tag_145\n        /* \"#utility.yul\":672:677   */\n      dup2\n        /* \"#utility.yul\":645:678   */\n      tag_110\n      jump\t// in\n    tag_145:\n        /* \"#utility.yul\":545:684   */\n      swap3\n      swap2\n      pop\n      pop\n      jump\t// out\n        /* \"#utility.yul\":690:1019   */\n    tag_17:\n        /* \"#utility.yul\":749:755   */\n      0x00\n        /* \"#utility.yul\":798:800   */\n      0x20\n        /* \"#utility.yul\":786:795   */\n      dup3\n        /* \"#utility.yul\":777:784   */\n      dup5\n        /* \"#utility.yul\":773:796   */\n      sub\n        /* \"#utility.yul\":769:801   */\n      slt\n        /* \"#utility.yul\":766:885   */\n      iszero\n      tag_147\n      jumpi\n        /* \"#utility.yul\":804:883   */\n      tag_148\n      tag_107\n      jump\t// in\n    tag_148:\n        /* \"#utility.yul\":766:885   */\n    tag_147:\n        /* \"#utility.yul\":924:925   */\n      0x00\n        /* \"#utility.yul\":949:1002   */\n      tag_149\n        /* \"#utility.yul\":994:1001   */\n      dup5\n        /* \"#utility.yul\":985:991   */\n      dup3\n        /* \"#utility.yul\":974:983   */\n      dup6\n        /* \"#utility.yul\":970:992   */\n      add\n        /* \"#utility.yul\":949:1002   */\n      tag_111\n      jump\t// in\n    tag_149:\n        /* \"#utility.yul\":939:1002   */\n      swap2\n      pop\n        /* \"#utility.yul\":895:1012   */\n      pop\n        /* \"#utility.yul\":690:1019   */\n      swap3\n      swap2\n      pop\n      pop\n      jump\t// out\n        /* \"#utility.yul\":1025:1151   */\n    tag_112:\n        /* \"#utility.yul\":1062:1069   */\n      0x00\n        /* \"#utility.yul\":1102:1144   */\n      0xffffffffffffffffffffffffffffffffffffffff\n        /* \"#utility.yul\":1095:1100   */\n      dup3\n        /* \"#utility.yul\":1091:1145   */\n      and\n        /* \"#utility.yul\":1080:1145   */\n      swap1\n      pop\n        /* \"#utility.yul\":1025:1151   */\n      swap2\n      swap1\n      pop\n      jump\t// out\n        /* \"#utility.yul\":1157:1253   */\n    tag_113:\n        /* \"#utility.yul\":1194:1201   */\n      0x00\n        /* \"#utility.yul\":1223:1247   */\n      tag_152\n        /* \"#utility.yul\":1241:1246   */\n      dup3\n        /* \"#utility.yul\":1223:1247   */\n      tag_112\n      jump\t// in\n    tag_152:\n        /* \"#utility.yul\":1212:1247   */\n      swap1\n      pop\n        /* \"#utility.yul\":1157:1253   */\n      swap2\n      swap1\n      pop\n      jump\t// out\n        /* \"#utility.yul\":1259:1381   */\n    tag_114:\n        /* \"#utility.yul\":1332:1356   */\n      tag_154\n        /* \"#utility.yul\":1350:1355   */\n      dup2\n        /* \"#utility.yul\":1332:1356   */\n      tag_113\n      jump\t// in\n    tag_154:\n        /* \"#utility.yul\":1325:1330   */\n      dup2\n        /* \"#utility.yul\":1322:1357   */\n      eq\n        /* \"#utility.yul\":1312:1375   */\n      tag_155\n      jumpi\n        /* \"#utility.yul\":1371:1372   */\n      0x00\n        /* \"#utility.yul\":1368:1369   */\n      dup1\n        /* \"#utility.yul\":1361:1373   */\n      revert\n        /* \"#utility.yul\":1312:1375   */\n    tag_155:\n        /* \"#utility.yul\":1259:1381   */\n      pop\n      jump\t// out\n        /* \"#utility.yul\":1387:1526   */\n    tag_115:\n        /* \"#utility.yul\":1433:1438   */\n      0x00\n        /* \"#utility.yul\":1471:1477   */\n      dup2\n        /* \"#utility.yul\":1458:1478   */\n      calldataload\n        /* \"#utility.yul\":1449:1478   */\n      swap1\n      pop\n        /* \"#utility.yul\":1487:1520   */\n      tag_157\n        /* \"#utility.yul\":1514:1519   */\n      dup2\n        /* \"#utility.yul\":1487:1520   */\n      tag_114\n      jump\t// in\n    tag_157:\n        /* \"#utility.yul\":1387:1526   */\n      swap3\n      swap2\n      pop\n      pop\n      jump\t// out\n        /* \"#utility.yul\":1532:1861   */\n    tag_22:\n        /* \"#utility.yul\":1591:1597   */\n      0x00\n        /* \"#utility.yul\":1640:1642   */\n      0x20\n        /* \"#utility.yul\":1628:1637   */\n      dup3\n        /* \"#utility.yul\":1619:1626   */\n      dup5\n        /* \"#utility.yul\":1615:1638   */\n      sub\n        /* \"#utility.yul\":1611:1643   */\n      slt\n        /* \"#utility.yul\":1608:1727   */\n      iszero\n      tag_159\n      jumpi\n        /* \"#utility.yul\":1646:1725   */\n      tag_160\n      tag_107\n      jump\t// in\n    tag_160:\n        /* \"#utility.yul\":1608:1727   */\n    tag_159:\n        /* \"#utility.yul\":1766:1767   */\n      0x00\n        /* \"#utility.yul\":1791:1844   */\n      tag_161\n        /* \"#utility.yul\":1836:1843   */\n      dup5\n        /* \"#utility.yul\":1827:1833   */\n      dup3\n        /* \"#utility.yul\":1816:1825   */\n      dup6\n        /* \"#utility.yul\":1812:1834   */\n      add\n        /* \"#utility.yul\":1791:1844   */\n      tag_115\n      jump\t// in\n    tag_161:\n        /* \"#utility.yul\":1781:1844   */\n      swap2\n      pop\n        /* \"#utility.yul\":1737:1854   */\n      pop\n        /* \"#utility.yul\":1532:1861   */\n      swap3\n      swap2\n      pop\n      pop\n      jump\t// out\n        /* \"#utility.yul\":1867:1957   */\n    tag_116:\n        /* \"#utility.yul\":1901:1908   */\n      0x00\n        /* \"#utility.yul\":1944:1949   */\n      dup2\n        /* \"#utility.yul\":1937:1950   */\n      iszero\n        /* \"#utility.yul\":1930:1951   */\n      iszero\n        /* \"#utility.yul\":1919:1951   */\n      swap1\n      pop\n        /* \"#utility.yul\":1867:1957   */\n      swap2\n      swap1\n      pop\n      jump\t// out\n        /* \"#utility.yul\":1963:2072   */\n    tag_117:\n        /* \"#utility.yul\":2044:2065   */\n      tag_164\n        /* \"#utility.yul\":2059:2064   */\n      dup2\n        /* \"#utility.yul\":2044:2065   */\n      tag_116\n      jump\t// in\n    tag_164:\n        /* \"#utility.yul\":2039:2042   */\n      dup3\n        /* \"#utility.yul\":2032:2066   */\n      mstore\n        /* \"#utility.yul\":1963:2072   */\n      pop\n      pop\n      jump\t// out\n        /* \"#utility.yul\":2078:2288   */\n    tag_25:\n        /* \"#utility.yul\":2165:2169   */\n      0x00\n        /* \"#utility.yul\":2203:2205   */\n      0x20\n        /* \"#utility.yul\":2192:2201   */\n      dup3\n        /* \"#utility.yul\":2188:2206   */\n      add\n        /* \"#utility.yul\":2180:2206   */\n      swap1\n      pop\n        /* \"#utility.yul\":2216:2281   */\n      tag_166\n        /* \"#utility.yul\":2278:2279   */\n      0x00\n        /* \"#utility.yul\":2267:2276   */\n      dup4\n        /* \"#utility.yul\":2263:2280   */\n      add\n        /* \"#utility.yul\":2254:2260   */\n      dup5\n        /* \"#utility.yul\":2216:2281   */\n      tag_117\n      jump\t// in\n    tag_166:\n        /* \"#utility.yul\":2078:2288   */\n      swap3\n      swap2\n      pop\n      pop\n      jump\t// out\n        /* \"#utility.yul\":2294:2412   */\n    tag_118:\n        /* \"#utility.yul\":2381:2405   */\n      tag_168\n        /* \"#utility.yul\":2399:2404   */\n      dup2\n        /* \"#utility.yul\":2381:2405   */\n      tag_109\n      jump\t// in\n    tag_168:\n        /* \"#utility.yul\":2376:2379   */\n      dup3\n        /* \"#utility.yul\":2369:2406   */\n      mstore\n        /* \"#utility.yul\":2294:2412   */\n      pop\n      pop\n      jump\t// out\n        /* \"#utility.yul\":2418:2536   */\n    tag_119:\n        /* \"#utility.yul\":2505:2529   */\n      tag_170\n        /* \"#utility.yul\":2523:2528   */\n      dup2\n        /* \"#utility.yul\":2505:2529   */\n      tag_113\n      jump\t// in\n    tag_170:\n        /* \"#utility.yul\":2500:2503   */\n      dup3\n        /* \"#utility.yul\":2493:2530   */\n      mstore\n        /* \"#utility.yul\":2418:2536   */\n      pop\n      pop\n      jump\t// out\n        /* \"#utility.yul\":2542:3206   */\n    tag_30:\n        /* \"#utility.yul\":2747:2751   */\n      0x00\n        /* \"#utility.yul\":2785:2788   */\n      0xa0\n        /* \"#utility.yul\":2774:2783   */\n      dup3\n        /* \"#utility.yul\":2770:2789   */\n      add\n        /* \"#utility.yul\":2762:2789   */\n      swap1\n      pop\n        /* \"#utility.yul\":2799:2870   */\n      tag_172\n        /* \"#utility.yul\":2867:2868   */\n      0x00\n        /* \"#utility.yul\":2856:2865   */\n      dup4\n        /* \"#utility.yul\":2852:2869   */\n      add\n        /* \"#utility.yul\":2843:2849   */\n      dup9\n        /* \"#utility.yul\":2799:2870   */\n      tag_118\n      jump\t// in\n    tag_172:\n        /* \"#utility.yul\":2880:2952   */\n      tag_173\n        /* \"#utility.yul\":2948:2950   */\n      0x20\n        /* \"#utility.yul\":2937:2946   */\n      dup4\n        /* \"#utility.yul\":2933:2951   */\n      add\n        /* \"#utility.yul\":2924:2930   */\n      dup8\n        /* \"#utility.yul\":2880:2952   */\n      tag_118\n      jump\t// in\n    tag_173:\n        /* \"#utility.yul\":2962:3034   */\n      tag_174\n        /* \"#utility.yul\":3030:3032   */\n      0x40\n        /* \"#utility.yul\":3019:3028   */\n      dup4\n        /* \"#utility.yul\":3015:3033   */\n      add\n        /* \"#utility.yul\":3006:3012   */\n      dup7\n        /* \"#utility.yul\":2962:3034   */\n      tag_118\n      jump\t// in\n    tag_174:\n        /* \"#utility.yul\":3044:3116   */\n      tag_175\n        /* \"#utility.yul\":3112:3114   */\n      0x60\n        /* \"#utility.yul\":3101:3110   */\n      dup4\n        /* \"#utility.yul\":3097:3115   */\n      add\n        /* \"#utility.yul\":3088:3094   */\n      dup6\n        /* \"#utility.yul\":3044:3116   */\n      tag_118\n      jump\t// in\n    tag_175:\n        /* \"#utility.yul\":3126:3199   */\n      tag_176\n        /* \"#utility.yul\":3194:3197   */\n      0x80\n        /* \"#utility.yul\":3183:3192   */\n      dup4\n        /* \"#utility.yul\":3179:3198   */\n      add\n        /* \"#utility.yul\":3170:3176   */\n      dup5\n        /* \"#utility.yul\":3126:3199   */\n      tag_119\n      jump\t// in\n    tag_176:\n        /* \"#utility.yul\":2542:3206   */\n      swap7\n      swap6\n      pop\n      pop\n      pop\n      pop\n      pop\n      pop\n      jump\t// out\n        /* \"#utility.yul\":3212:3434   */\n    tag_35:\n        /* \"#utility.yul\":3305:3309   */\n      0x00\n        /* \"#utility.yul\":3343:3345   */\n      0x20\n        /* \"#utility.yul\":3332:3341   */\n      dup3\n        /* \"#utility.yul\":3328:3346   */\n      add\n        /* \"#utility.yul\":3320:3346   */\n      swap1\n      pop\n        /* \"#utility.yul\":3356:3427   */\n      tag_178\n        /* \"#utility.yul\":3424:3425   */\n      0x00\n        /* \"#utility.yul\":3413:3422   */\n      dup4\n        /* \"#utility.yul\":3409:3426   */\n      add\n        /* \"#utility.yul\":3400:3406   */\n      dup5\n        /* \"#utility.yul\":3356:3427   */\n      tag_119\n      jump\t// in\n    tag_178:\n        /* \"#utility.yul\":3212:3434   */\n      swap3\n      swap2\n      pop\n      pop\n      jump\t// out\n        /* \"#utility.yul\":3440:3539   */\n    tag_120:\n        /* \"#utility.yul\":3492:3498   */\n      0x00\n        /* \"#utility.yul\":3526:3531   */\n      dup2\n        /* \"#utility.yul\":3520:3532   */\n      mload\n        /* \"#utility.yul\":3510:3532   */\n      swap1\n      pop\n        /* \"#utility.yul\":3440:3539   */\n      swap2\n      swap1\n      pop\n      jump\t// out\n        /* \"#utility.yul\":3545:3714   */\n    tag_121:\n        /* \"#utility.yul\":3629:3640   */\n      0x00\n        /* \"#utility.yul\":3663:3669   */\n      dup3\n        /* \"#utility.yul\":3658:3661   */\n      dup3\n        /* \"#utility.yul\":3651:3670   */\n      mstore\n        /* \"#utility.yul\":3703:3707   */\n      0x20\n        /* \"#utility.yul\":3698:3701   */\n      dup3\n        /* \"#utility.yul\":3694:3708   */\n      add\n        /* \"#utility.yul\":3679:3708   */\n      swap1\n      pop\n        /* \"#utility.yul\":3545:3714   */\n      swap3\n      swap2\n      pop\n      pop\n      jump\t// out\n        /* \"#utility.yul\":3720:4027   */\n    tag_122:\n        /* \"#utility.yul\":3788:3789   */\n      0x00\n        /* \"#utility.yul\":3798:3911   */\n    tag_182:\n        /* \"#utility.yul\":3812:3818   */\n      dup4\n        /* \"#utility.yul\":3809:3810   */\n      dup2\n        /* \"#utility.yul\":3806:3819   */\n      lt\n        /* \"#utility.yul\":3798:3911   */\n      iszero\n      tag_184\n      jumpi\n        /* \"#utility.yul\":3897:3898   */\n      dup1\n        /* \"#utility.yul\":3892:3895   */\n      dup3\n        /* \"#utility.yul\":3888:3899   */\n      add\n        /* \"#utility.yul\":3882:3900   */\n      mload\n        /* \"#utility.yul\":3878:3879   */\n      dup2\n        /* \"#utility.yul\":3873:3876   */\n      dup5\n        /* \"#utility.yul\":3869:3880   */\n      add\n        /* \"#utility.yul\":3862:3901   */\n      mstore\n        /* \"#utility.yul\":3834:3836   */\n      0x20\n        /* \"#utility.yul\":3831:3832   */\n      dup2\n        /* \"#utility.yul\":3827:3837   */\n      add\n        /* \"#utility.yul\":3822:3837   */\n      swap1\n      pop\n        /* \"#utility.yul\":3798:3911   */\n      jump(tag_182)\n    tag_184:\n        /* \"#utility.yul\":3929:3935   */\n      dup4\n        /* \"#utility.yul\":3926:3927   */\n      dup2\n        /* \"#utility.yul\":3923:3936   */\n      gt\n        /* \"#utility.yul\":3920:4021   */\n      iszero\n      tag_185\n      jumpi\n        /* \"#utility.yul\":4009:4010   */\n      0x00\n        /* \"#utility.yul\":4000:4006   */\n      dup5\n        /* \"#utility.yul\":3995:3998   */\n      dup5\n        /* \"#utility.yul\":3991:4007   */\n      add\n        /* \"#utility.yul\":3984:4011   */\n      mstore\n        /* \"#utility.yul\":3920:4021   */\n    tag_185:\n        /* \"#utility.yul\":3769:4027   */\n      pop\n        /* \"#utility.yul\":3720:4027   */\n      pop\n      pop\n      pop\n      jump\t// out\n        /* \"#utility.yul\":4033:4135   */\n    tag_123:\n        /* \"#utility.yul\":4074:4080   */\n      0x00\n        /* \"#utility.yul\":4125:4127   */\n      0x1f\n        /* \"#utility.yul\":4121:4128   */\n      not\n        /* \"#utility.yul\":4116:4118   */\n      0x1f\n        /* \"#utility.yul\":4109:4114   */\n      dup4\n        /* \"#utility.yul\":4105:4119   */\n      add\n        /* \"#utility.yul\":4101:4129   */\n      and\n        /* \"#utility.yul\":4091:4129   */\n      swap1\n      pop\n        /* \"#utility.yul\":4033:4135   */\n      swap2\n      swap1\n      pop\n      jump\t// out\n        /* \"#utility.yul\":4141:4505   */\n    tag_124:\n        /* \"#utility.yul\":4229:4232   */\n      0x00\n        /* \"#utility.yul\":4257:4296   */\n      tag_188\n        /* \"#utility.yul\":4290:4295   */\n      dup3\n        /* \"#utility.yul\":4257:4296   */\n      tag_120\n      jump\t// in\n    tag_188:\n        /* \"#utility.yul\":4312:4383   */\n      tag_189\n        /* \"#utility.yul\":4376:4382   */\n      dup2\n        /* \"#utility.yul\":4371:4374   */\n      dup6\n        /* \"#utility.yul\":4312:4383   */\n      tag_121\n      jump\t// in\n    tag_189:\n        /* \"#utility.yul\":4305:4383   */\n      swap4\n      pop\n        /* \"#utility.yul\":4392:4444   */\n      tag_190\n        /* \"#utility.yul\":4437:4443   */\n      dup2\n        /* \"#utility.yul\":4432:4435   */\n      dup6\n        /* \"#utility.yul\":4425:4429   */\n      0x20\n        /* \"#utility.yul\":4418:4423   */\n      dup7\n        /* \"#utility.yul\":4414:4430   */\n      add\n        /* \"#utility.yul\":4392:4444   */\n      tag_122\n      jump\t// in\n    tag_190:\n        /* \"#utility.yul\":4469:4498   */\n      tag_191\n        /* \"#utility.yul\":4491:4497   */\n      dup2\n        /* \"#utility.yul\":4469:4498   */\n      tag_123\n      jump\t// in\n    tag_191:\n        /* \"#utility.yul\":4464:4467   */\n      dup5\n        /* \"#utility.yul\":4460:4499   */\n      add\n        /* \"#utility.yul\":4453:4499   */\n      swap2\n      pop\n        /* \"#utility.yul\":4233:4505   */\n      pop\n        /* \"#utility.yul\":4141:4505   */\n      swap3\n      swap2\n      pop\n      pop\n      jump\t// out\n        /* \"#utility.yul\":4511:4615   */\n    tag_125:\n        /* \"#utility.yul\":4556:4563   */\n      0x00\n        /* \"#utility.yul\":4585:4609   */\n      tag_193\n        /* \"#utility.yul\":4603:4608   */\n      dup3\n        /* \"#utility.yul\":4585:4609   */\n      tag_112\n      jump\t// in\n    tag_193:\n        /* \"#utility.yul\":4574:4609   */\n      swap1\n      pop\n        /* \"#utility.yul\":4511:4615   */\n      swap2\n      swap1\n      pop\n      jump\t// out\n        /* \"#utility.yul\":4621:4763   */\n    tag_126:\n        /* \"#utility.yul\":4724:4756   */\n      tag_195\n        /* \"#utility.yul\":4750:4755   */\n      dup2\n        /* \"#utility.yul\":4724:4756   */\n      tag_125\n      jump\t// in\n    tag_195:\n        /* \"#utility.yul\":4719:4722   */\n      dup3\n        /* \"#utility.yul\":4712:4757   */\n      mstore\n        /* \"#utility.yul\":4621:4763   */\n      pop\n      pop\n      jump\t// out\n        /* \"#utility.yul\":4769:5544   */\n    tag_41:\n        /* \"#utility.yul\":5004:5008   */\n      0x00\n        /* \"#utility.yul\":5042:5045   */\n      0xa0\n        /* \"#utility.yul\":5031:5040   */\n      dup3\n        /* \"#utility.yul\":5027:5046   */\n      add\n        /* \"#utility.yul\":5019:5046   */\n      swap1\n      pop\n        /* \"#utility.yul\":5092:5101   */\n      dup2\n        /* \"#utility.yul\":5086:5090   */\n      dup2\n        /* \"#utility.yul\":5082:5102   */\n      sub\n        /* \"#utility.yul\":5078:5079   */\n      0x00\n        /* \"#utility.yul\":5067:5076   */\n      dup4\n        /* \"#utility.yul\":5063:5080   */\n      add\n        /* \"#utility.yul\":5056:5103   */\n      mstore\n        /* \"#utility.yul\":5120:5198   */\n      tag_197\n        /* \"#utility.yul\":5193:5197   */\n      dup2\n        /* \"#utility.yul\":5184:5190   */\n      dup9\n        /* \"#utility.yul\":5120:5198   */\n      tag_124\n      jump\t// in\n    tag_197:\n        /* \"#utility.yul\":5112:5198   */\n      swap1\n      pop\n        /* \"#utility.yul\":5208:5280   */\n      tag_198\n        /* \"#utility.yul\":5276:5278   */\n      0x20\n        /* \"#utility.yul\":5265:5274   */\n      dup4\n        /* \"#utility.yul\":5261:5279   */\n      add\n        /* \"#utility.yul\":5252:5258   */\n      dup8\n        /* \"#utility.yul\":5208:5280   */\n      tag_118\n      jump\t// in\n    tag_198:\n        /* \"#utility.yul\":5290:5378   */\n      tag_199\n        /* \"#utility.yul\":5374:5376   */\n      0x40\n        /* \"#utility.yul\":5363:5372   */\n      dup4\n        /* \"#utility.yul\":5359:5377   */\n      add\n        /* \"#utility.yul\":5350:5356   */\n      dup7\n        /* \"#utility.yul\":5290:5378   */\n      tag_126\n      jump\t// in\n    tag_199:\n        /* \"#utility.yul\":5388:5454   */\n      tag_200\n        /* \"#utility.yul\":5450:5452   */\n      0x60\n        /* \"#utility.yul\":5439:5448   */\n      dup4\n        /* \"#utility.yul\":5435:5453   */\n      add\n        /* \"#utility.yul\":5426:5432   */\n      dup6\n        /* \"#utility.yul\":5388:5454   */\n      tag_117\n      jump\t// in\n    tag_200:\n        /* \"#utility.yul\":5464:5537   */\n      tag_201\n        /* \"#utility.yul\":5532:5535   */\n      0x80\n        /* \"#utility.yul\":5521:5530   */\n      dup4\n        /* \"#utility.yul\":5517:5536   */\n      add\n        /* \"#utility.yul\":5508:5514   */\n      dup5\n        /* \"#utility.yul\":5464:5537   */\n      tag_118\n      jump\t// in\n    tag_201:\n        /* \"#utility.yul\":4769:5544   */\n      swap7\n      swap6\n      pop\n      pop\n      pop\n      pop\n      pop\n      pop\n      jump\t// out\n        /* \"#utility.yul\":5550:5772   */\n    tag_46:\n        /* \"#utility.yul\":5643:5647   */\n      0x00\n        /* \"#utility.yul\":5681:5683   */\n      0x20\n        /* \"#utility.yul\":5670:5679   */\n      dup3\n        /* \"#utility.yul\":5666:5684   */\n      add\n        /* \"#utility.yul\":5658:5684   */\n      swap1\n      pop\n        /* \"#utility.yul\":5694:5765   */\n      tag_203\n        /* \"#utility.yul\":5762:5763   */\n      0x00\n        /* \"#utility.yul\":5751:5760   */\n      dup4\n        /* \"#utility.yul\":5747:5764   */\n      add\n        /* \"#utility.yul\":5738:5744   */\n      dup5\n        /* \"#utility.yul\":5694:5765   */\n      tag_118\n      jump\t// in\n    tag_203:\n        /* \"#utility.yul\":5550:5772   */\n      swap3\n      swap2\n      pop\n      pop\n      jump\t// out\n        /* \"#utility.yul\":5778:5895   */\n    tag_127:\n        /* \"#utility.yul\":5887:5888   */\n      0x00\n        /* \"#utility.yul\":5884:5885   */\n      dup1\n        /* \"#utility.yul\":5877:5889   */\n      revert\n        /* \"#utility.yul\":5901:6018   */\n    tag_128:\n        /* \"#utility.yul\":6010:6011   */\n      0x00\n        /* \"#utility.yul\":6007:6008   */\n      dup1\n        /* \"#utility.yul\":6000:6012   */\n      revert\n        /* \"#utility.yul\":6024:6141   */\n    tag_129:\n        /* \"#utility.yul\":6133:6134   */\n      0x00\n        /* \"#utility.yul\":6130:6131   */\n      dup1\n        /* \"#utility.yul\":6123:6135   */\n      revert\n        /* \"#utility.yul\":6161:6714   */\n    tag_130:\n        /* \"#utility.yul\":6219:6227   */\n      0x00\n        /* \"#utility.yul\":6229:6235   */\n      dup1\n        /* \"#utility.yul\":6279:6282   */\n      dup4\n        /* \"#utility.yul\":6272:6276   */\n      0x1f\n        /* \"#utility.yul\":6264:6270   */\n      dup5\n        /* \"#utility.yul\":6260:6277   */\n      add\n        /* \"#utility.yul\":6256:6283   */\n      slt\n        /* \"#utility.yul\":6246:6368   */\n      tag_208\n      jumpi\n        /* \"#utility.yul\":6287:6366   */\n      tag_209\n      tag_127\n      jump\t// in\n    tag_209:\n        /* \"#utility.yul\":6246:6368   */\n    tag_208:\n        /* \"#utility.yul\":6400:6406   */\n      dup3\n        /* \"#utility.yul\":6387:6407   */\n      calldataload\n        /* \"#utility.yul\":6377:6407   */\n      swap1\n      pop\n        /* \"#utility.yul\":6430:6448   */\n      0xffffffffffffffff\n        /* \"#utility.yul\":6422:6428   */\n      dup2\n        /* \"#utility.yul\":6419:6449   */\n      gt\n        /* \"#utility.yul\":6416:6533   */\n      iszero\n      tag_210\n      jumpi\n        /* \"#utility.yul\":6452:6531   */\n      tag_211\n      tag_128\n      jump\t// in\n    tag_211:\n        /* \"#utility.yul\":6416:6533   */\n    tag_210:\n        /* \"#utility.yul\":6566:6570   */\n      0x20\n        /* \"#utility.yul\":6558:6564   */\n      dup4\n        /* \"#utility.yul\":6554:6571   */\n      add\n        /* \"#utility.yul\":6542:6571   */\n      swap2\n      pop\n        /* \"#utility.yul\":6620:6623   */\n      dup4\n        /* \"#utility.yul\":6612:6616   */\n      0x01\n        /* \"#utility.yul\":6604:6610   */\n      dup3\n        /* \"#utility.yul\":6600:6617   */\n      mul\n        /* \"#utility.yul\":6590:6598   */\n      dup4\n        /* \"#utility.yul\":6586:6618   */\n      add\n        /* \"#utility.yul\":6583:6624   */\n      gt\n        /* \"#utility.yul\":6580:6708   */\n      iszero\n      tag_212\n      jumpi\n        /* \"#utility.yul\":6627:6706   */\n      tag_213\n      tag_129\n      jump\t// in\n    tag_213:\n        /* \"#utility.yul\":6580:6708   */\n    tag_212:\n        /* \"#utility.yul\":6161:6714   */\n      swap3\n      pop\n      swap3\n      swap1\n      pop\n      jump\t// out\n        /* \"#utility.yul\":6720:6858   */\n    tag_131:\n        /* \"#utility.yul\":6801:6833   */\n      tag_215\n        /* \"#utility.yul\":6827:6832   */\n      dup2\n        /* \"#utility.yul\":6801:6833   */\n      tag_125\n      jump\t// in\n    tag_215:\n        /* \"#utility.yul\":6794:6799   */\n      dup2\n        /* \"#utility.yul\":6791:6834   */\n      eq\n        /* \"#utility.yul\":6781:6852   */\n      tag_216\n      jumpi\n        /* \"#utility.yul\":6848:6849   */\n      0x00\n        /* \"#utility.yul\":6845:6846   */\n      dup1\n        /* \"#utility.yul\":6838:6850   */\n      revert\n        /* \"#utility.yul\":6781:6852   */\n    tag_216:\n        /* \"#utility.yul\":6720:6858   */\n      pop\n      jump\t// out\n        /* \"#utility.yul\":6864:7019   */\n    tag_132:\n        /* \"#utility.yul\":6918:6923   */\n      0x00\n        /* \"#utility.yul\":6956:6962   */\n      dup2\n        /* \"#utility.yul\":6943:6963   */\n      calldataload\n        /* \"#utility.yul\":6934:6963   */\n      swap1\n      pop\n        /* \"#utility.yul\":6972:7013   */\n      tag_218\n        /* \"#utility.yul\":7007:7012   */\n      dup2\n        /* \"#utility.yul\":6972:7013   */\n      tag_131\n      jump\t// in\n    tag_218:\n        /* \"#utility.yul\":6864:7019   */\n      swap3\n      swap2\n      pop\n      pop\n      jump\t// out\n        /* \"#utility.yul\":7025:7860   */\n    tag_50:\n        /* \"#utility.yul\":7122:7128   */\n      0x00\n        /* \"#utility.yul\":7130:7136   */\n      dup1\n        /* \"#utility.yul\":7138:7144   */\n      0x00\n        /* \"#utility.yul\":7146:7152   */\n      dup1\n        /* \"#utility.yul\":7195:7197   */\n      0x60\n        /* \"#utility.yul\":7183:7192   */\n      dup6\n        /* \"#utility.yul\":7174:7181   */\n      dup8\n        /* \"#utility.yul\":7170:7193   */\n      sub\n        /* \"#utility.yul\":7166:7198   */\n      slt\n        /* \"#utility.yul\":7163:7282   */\n      iszero\n      tag_220\n      jumpi\n        /* \"#utility.yul\":7201:7280   */\n      tag_221\n      tag_107\n      jump\t// in\n    tag_221:\n        /* \"#utility.yul\":7163:7282   */\n    tag_220:\n        /* \"#utility.yul\":7349:7350   */\n      0x00\n        /* \"#utility.yul\":7338:7347   */\n      dup6\n        /* \"#utility.yul\":7334:7351   */\n      add\n        /* \"#utility.yul\":7321:7352   */\n      calldataload\n        /* \"#utility.yul\":7379:7397   */\n      0xffffffffffffffff\n        /* \"#utility.yul\":7371:7377   */\n      dup2\n        /* \"#utility.yul\":7368:7398   */\n      gt\n        /* \"#utility.yul\":7365:7482   */\n      iszero\n      tag_222\n      jumpi\n        /* \"#utility.yul\":7401:7480   */\n      tag_223\n      tag_108\n      jump\t// in\n    tag_223:\n        /* \"#utility.yul\":7365:7482   */\n    tag_222:\n        /* \"#utility.yul\":7514:7579   */\n      tag_224\n        /* \"#utility.yul\":7571:7578   */\n      dup8\n        /* \"#utility.yul\":7562:7568   */\n      dup3\n        /* \"#utility.yul\":7551:7560   */\n      dup9\n        /* \"#utility.yul\":7547:7569   */\n      add\n        /* \"#utility.yul\":7514:7579   */\n      tag_130\n      jump\t// in\n    tag_224:\n        /* \"#utility.yul\":7496:7579   */\n      swap5\n      pop\n      swap5\n      pop\n        /* \"#utility.yul\":7292:7589   */\n      pop\n        /* \"#utility.yul\":7628:7630   */\n      0x20\n        /* \"#utility.yul\":7654:7707   */\n      tag_225\n        /* \"#utility.yul\":7699:7706   */\n      dup8\n        /* \"#utility.yul\":7690:7696   */\n      dup3\n        /* \"#utility.yul\":7679:7688   */\n      dup9\n        /* \"#utility.yul\":7675:7697   */\n      add\n        /* \"#utility.yul\":7654:7707   */\n      tag_111\n      jump\t// in\n    tag_225:\n        /* \"#utility.yul\":7644:7707   */\n      swap3\n      pop\n        /* \"#utility.yul\":7599:7717   */\n      pop\n        /* \"#utility.yul\":7756:7758   */\n      0x40\n        /* \"#utility.yul\":7782:7843   */\n      tag_226\n        /* \"#utility.yul\":7835:7842   */\n      dup8\n        /* \"#utility.yul\":7826:7832   */\n      dup3\n        /* \"#utility.yul\":7815:7824   */\n      dup9\n        /* \"#utility.yul\":7811:7833   */\n      add\n        /* \"#utility.yul\":7782:7843   */\n      tag_132\n      jump\t// in\n    tag_226:\n        /* \"#utility.yul\":7772:7843   */\n      swap2\n      pop\n        /* \"#utility.yul\":7727:7853   */\n      pop\n        /* \"#utility.yul\":7025:7860   */\n      swap3\n      swap6\n      swap2\n      swap5\n      pop\n      swap3\n      pop\n      jump\t// out\n        /* \"#utility.yul\":7866:8046   */\n    tag_133:\n        /* \"#utility.yul\":7914:7991   */\n      0x4e487b7100000000000000000000000000000000000000000000000000000000\n        /* \"#utility.yul\":7911:7912   */\n      0x00\n        /* \"#utility.yul\":7904:7992   */\n      mstore\n        /* \"#utility.yul\":8011:8015   */\n      0x12\n        /* \"#utility.yul\":8008:8009   */\n      0x04\n        /* \"#utility.yul\":8001:8016   */\n      mstore\n        /* \"#utility.yul\":8035:8039   */\n      0x24\n        /* \"#utility.yul\":8032:8033   */\n      0x00\n        /* \"#utility.yul\":8025:8040   */\n      revert\n        /* \"#utility.yul\":8052:8232   */\n    tag_134:\n        /* \"#utility.yul\":8100:8177   */\n      0x4e487b7100000000000000000000000000000000000000000000000000000000\n        /* \"#utility.yul\":8097:8098   */\n      0x00\n        /* \"#utility.yul\":8090:8178   */\n      mstore\n        /* \"#utility.yul\":8197:8201   */\n      0x11\n        /* \"#utility.yul\":8194:8195   */\n      0x04\n        /* \"#utility.yul\":8187:8202   */\n      mstore\n        /* \"#utility.yul\":8221:8225   */\n      0x24\n        /* \"#utility.yul\":8218:8219   */\n      0x00\n        /* \"#utility.yul\":8211:8226   */\n      revert\n        /* \"#utility.yul\":8238:8423   */\n    tag_71:\n        /* \"#utility.yul\":8278:8279   */\n      0x00\n        /* \"#utility.yul\":8295:8315   */\n      tag_230\n        /* \"#utility.yul\":8313:8314   */\n      dup3\n        /* \"#utility.yul\":8295:8315   */\n      tag_109\n      jump\t// in\n    tag_230:\n        /* \"#utility.yul\":8290:8315   */\n      swap2\n      pop\n        /* \"#utility.yul\":8329:8349   */\n      tag_231\n        /* \"#utility.yul\":8347:8348   */\n      dup4\n        /* \"#utility.yul\":8329:8349   */\n      tag_109\n      jump\t// in\n    tag_231:\n        /* \"#utility.yul\":8324:8349   */\n      swap3\n      pop\n        /* \"#utility.yul\":8368:8369   */\n      dup3\n        /* \"#utility.yul\":8358:8393   */\n      tag_232\n      jumpi\n        /* \"#utility.yul\":8373:8391   */\n      tag_233\n      tag_133\n      jump\t// in\n    tag_233:\n        /* \"#utility.yul\":8358:8393   */\n    tag_232:\n        /* \"#utility.yul\":8415:8416   */\n      dup3\n        /* \"#utility.yul\":8412:8413   */\n      dup3\n        /* \"#utility.yul\":8408:8417   */\n      div\n        /* \"#utility.yul\":8403:8417   */\n      swap1\n      pop\n        /* \"#utility.yul\":8238:8423   */\n      swap3\n      swap2\n      pop\n      pop\n      jump\t// out\n        /* \"#utility.yul\":8429:8609   */\n    tag_135:\n        /* \"#utility.yul\":8477:8554   */\n      0x4e487b7100000000000000000000000000000000000000000000000000000000\n        /* \"#utility.yul\":8474:8475   */\n      0x00\n        /* \"#utility.yul\":8467:8555   */\n      mstore\n        /* \"#utility.yul\":8574:8578   */\n      0x22\n        /* \"#utility.yul\":8571:8572   */\n      0x04\n        /* \"#utility.yul\":8564:8579   */\n      mstore\n        /* \"#utility.yul\":8598:8602   */\n      0x24\n        /* \"#utility.yul\":8595:8596   */\n      0x00\n        /* \"#utility.yul\":8588:8603   */\n      revert\n        /* \"#utility.yul\":8615:8935   */\n    tag_77:\n        /* \"#utility.yul\":8659:8665   */\n      0x00\n        /* \"#utility.yul\":8696:8697   */\n      0x02\n        /* \"#utility.yul\":8690:8694   */\n      dup3\n        /* \"#utility.yul\":8686:8698   */\n      div\n        /* \"#utility.yul\":8676:8698   */\n      swap1\n      pop\n        /* \"#utility.yul\":8743:8744   */\n      0x01\n        /* \"#utility.yul\":8737:8741   */\n      dup3\n        /* \"#utility.yul\":8733:8745   */\n      and\n        /* \"#utility.yul\":8764:8782   */\n      dup1\n        /* \"#utility.yul\":8754:8835   */\n      tag_236\n      jumpi\n        /* \"#utility.yul\":8820:8824   */\n      0x7f\n        /* \"#utility.yul\":8812:8818   */\n      dup3\n        /* \"#utility.yul\":8808:8825   */\n      and\n        /* \"#utility.yul\":8798:8825   */\n      swap2\n      pop\n        /* \"#utility.yul\":8754:8835   */\n    tag_236:\n        /* \"#utility.yul\":8882:8884   */\n      0x20\n        /* \"#utility.yul\":8874:8880   */\n      dup3\n        /* \"#utility.yul\":8871:8885   */\n      lt\n        /* \"#utility.yul\":8851:8869   */\n      dup2\n        /* \"#utility.yul\":8848:8886   */\n      eq\n        /* \"#utility.yul\":8845:8929   */\n      iszero\n      tag_237\n      jumpi\n        /* \"#utility.yul\":8901:8919   */\n      tag_238\n      tag_135\n      jump\t// in\n    tag_238:\n        /* \"#utility.yul\":8845:8929   */\n    tag_237:\n        /* \"#utility.yul\":8666:8935   */\n      pop\n        /* \"#utility.yul\":8615:8935   */\n      swap2\n      swap1\n      pop\n      jump\t// out\n        /* \"#utility.yul\":8941:9174   */\n    tag_86:\n        /* \"#utility.yul\":8980:8983   */\n      0x00\n        /* \"#utility.yul\":9003:9027   */\n      tag_240\n        /* \"#utility.yul\":9021:9026   */\n      dup3\n        /* \"#utility.yul\":9003:9027   */\n      tag_109\n      jump\t// in\n    tag_240:\n        /* \"#utility.yul\":8994:9027   */\n      swap2\n      pop\n        /* \"#utility.yul\":9049:9115   */\n      0xffffffffffffffffffffffffffffffffffffffffffffffffffffffffffffffff\n        /* \"#utility.yul\":9042:9047   */\n      dup3\n        /* \"#utility.yul\":9039:9116   */\n      eq\n        /* \"#utility.yul\":9036:9139   */\n      iszero\n      tag_241\n      jumpi\n        /* \"#utility.yul\":9119:9137   */\n      tag_242\n      tag_134\n      jump\t// in\n    tag_242:\n        /* \"#utility.yul\":9036:9139   */\n    tag_241:\n        /* \"#utility.yul\":9166:9167   */\n      0x01\n        /* \"#utility.yul\":9159:9164   */\n      dup3\n        /* \"#utility.yul\":9155:9168   */\n      add\n        /* \"#utility.yul\":9148:9168   */\n      swap1\n      pop\n        /* \"#utility.yul\":8941:9174   */\n      swap2\n      swap1\n      pop\n      jump\t// out\n\n    auxdata: 0xa2646970667358221220a70308cb4002fe59019951b5c237ed23115fbc6ccd62f44d237e3da2ccac905e64736f6c63430008090033\n}\n",
    "bytecode": {
      "linkReferences": {},
      "object": "60806040523480156200001157600080fd5b5060405162000f9838038062000f9883398181016040528101906200003791906200012c565b80600260006101000a81548173ffffffffffffffffffffffffffffffffffffffff021916908373ffffffffffffffffffffffffffffffffffffffff16021790555081600381905550505062000173565b600080fd5b6000819050919050565b620000a1816200008c565b8114620000ad57600080fd5b50565b600081519050620000c18162000096565b92915050565b600073ffffffffffffffffffffffffffffffffffffffff82169050919050565b6000620000f482620000c7565b9050919050565b6200010681620000e7565b81146200011257600080fd5b50565b6000815190506200012681620000fb565b92915050565b6000806040838503121562000146576200014562000087565b5b60006200015685828601620000b0565b9250506020620001698582860162000115565b9150509250929050565b610e1580620001836000396000f3fe60806040526004361061009c5760003560e01c806382fde0931161006457806382fde093146101a25780638a9cfd55146101cd578063937e09b1146101f6578063d7bb99ba14610221578063d7d1bbdb1461022b578063fbfa4b7f146102545761009c565b806303441006146100a15780630a144391146100ca5780634051ddac14610107578063481c6a751461013657806381d12c5814610161575b600080fd5b3480156100ad57600080fd5b506100c860048036038101906100c391906108f8565b61027f565b005b3480156100d657600080fd5b506100f160048036038101906100ec9190610983565b6103ba565b6040516100fe91906109cb565b60405180910390f35b34801561011357600080fd5b5061011c6103da565b60405161012d959493929190610a04565b60405180910390f35b34801561014257600080fd5b5061014b610420565b6040516101589190610a57565b60405180910390f35b34801561016d57600080fd5b50610188600480360381019061018391906108f8565b610446565b604051610199959493929190610b2c565b60405180910390f35b3480156101ae57600080fd5b506101b7610531565b6040516101c49190610b86565b60405180910390f35b3480156101d957600080fd5b506101f460048036038101906101ef9190610c32565b610537565b005b34801561020257600080fd5b5061020b61064b565b6040516102189190610b86565b60405180910390f35b610229610651565b005b34801561023757600080fd5b50610252600480360381019061024d91906108f8565b6106d1565b005b34801561026057600080fd5b5061026961080f565b6040516102769190610b86565b60405180910390f35b600260009054906101000a900473ffffffffffffffffffffffffffffffffffffffff1673ffffffffffffffffffffffffffffffffffffffff163373ffffffffffffffffffffffffffffffffffffffff16146102d957600080fd5b60006001600083815260200190815260200160002090508060020160149054906101000a900460ff161561030c57600080fd5b600260055461031b9190610d04565b81600301541161032a57600080fd5b8060020160009054906101000a900473ffffffffffffffffffffffffffffffffffffffff1673ffffffffffffffffffffffffffffffffffffffff166108fc82600101549081150290604051600060405180830381858888f19350505050158015610398573d6000803e3d6000fd5b5060018160020160146101000a81548160ff0219169083151502179055505050565b60046020528060005260406000206000915054906101000a900460ff1681565b600080600080600060035447600054600554600260009054906101000a900473ffffffffffffffffffffffffffffffffffffffff16945094509450945094509091929394565b600260009054906101000a900473ffffffffffffffffffffffffffffffffffffffff1681565b600160205280600052604060002060009150905080600001805461046990610d64565b80601f016020809104026020016040519081016040528092919081815260200182805461049590610d64565b80156104e25780601f106104b7576101008083540402835291602001916104e2565b820191906000526020600020905b8154815290600101906020018083116104c557829003601f168201915b5050505050908060010154908060020160009054906101000a900473ffffffffffffffffffffffffffffffffffffffff16908060020160149054906101000a900460ff16908060030154905085565b60055481565b600260009054906101000a900473ffffffffffffffffffffffffffffffffffffffff1673ffffffffffffffffffffffffffffffffffffffff163373ffffffffffffffffffffffffffffffffffffffff161461059157600080fd5b6000600160008060008154809291906105a990610d96565b919050558152602001908152602001600020905084848260000191906105d0929190610815565b50828160010181905550818160020160006101000a81548173ffffffffffffffffffffffffffffffffffffffff021916908373ffffffffffffffffffffffffffffffffffffffff16021790555060008160020160146101000a81548160ff021916908315150217905550600081600301819055505050505050565b60035481565b600354341161065f57600080fd5b6001600460003373ffffffffffffffffffffffffffffffffffffffff1673ffffffffffffffffffffffffffffffffffffffff16815260200190815260200160002060006101000a81548160ff021916908315150217905550600560008154809291906106ca90610d96565b9190505550565b6000600160008381526020019081526020016000209050600460003373ffffffffffffffffffffffffffffffffffffffff1673ffffffffffffffffffffffffffffffffffffffff16815260200190815260200160002060009054906101000a900460ff1661073e57600080fd5b8060040160003373ffffffffffffffffffffffffffffffffffffffff1673ffffffffffffffffffffffffffffffffffffffff16815260200190815260200160002060009054906101000a900460ff161561079757600080fd5b60018160040160003373ffffffffffffffffffffffffffffffffffffffff1673ffffffffffffffffffffffffffffffffffffffff16815260200190815260200160002060006101000a81548160ff02191690831515021790555080600301600081548092919061080690610d96565b91905055505050565b60005481565b82805461082190610d64565b90600052602060002090601f016020900481019282610843576000855561088a565b82601f1061085c57803560ff191683800117855561088a565b8280016001018555821561088a579182015b8281111561088957823582559160200191906001019061086e565b5b509050610897919061089b565b5090565b5b808211156108b457600081600090555060010161089c565b5090565b600080fd5b600080fd5b6000819050919050565b6108d5816108c2565b81146108e057600080fd5b50565b6000813590506108f2816108cc565b92915050565b60006020828403121561090e5761090d6108b8565b5b600061091c848285016108e3565b91505092915050565b600073ffffffffffffffffffffffffffffffffffffffff82169050919050565b600061095082610925565b9050919050565b61096081610945565b811461096b57600080fd5b50565b60008135905061097d81610957565b92915050565b600060208284031215610999576109986108b8565b5b60006109a78482850161096e565b91505092915050565b60008115159050919050565b6109c5816109b0565b82525050565b60006020820190506109e060008301846109bc565b92915050565b6109ef816108c2565b82525050565b6109fe81610945565b82525050565b600060a082019050610a1960008301886109e6565b610a2660208301876109e6565b610a3360408301866109e6565b610a4060608301856109e6565b610a4d60808301846109f5565b9695505050505050565b6000602082019050610a6c60008301846109f5565b92915050565b600081519050919050565b600082825260208201905092915050565b60005b83811015610aac578082015181840152602081019050610a91565b83811115610abb576000848401525b50505050565b6000601f19601f8301169050919050565b6000610add82610a72565b610ae78185610a7d565b9350610af7818560208601610a8e565b610b0081610ac1565b840191505092915050565b6000610b1682610925565b9050919050565b610b2681610b0b565b82525050565b600060a0820190508181036000830152610b468188610ad2565b9050610b5560208301876109e6565b610b626040830186610b1d565b610b6f60608301856109bc565b610b7c60808301846109e6565b9695505050505050565b6000602082019050610b9b60008301846109e6565b92915050565b600080fd5b600080fd5b600080fd5b60008083601f840112610bc657610bc5610ba1565b5b8235905067ffffffffffffffff811115610be357610be2610ba6565b5b602083019150836001820283011115610bff57610bfe610bab565b5b9250929050565b610c0f81610b0b565b8114610c1a57600080fd5b50565b600081359050610c2c81610c06565b92915050565b60008060008060608587031215610c4c57610c4b6108b8565b5b600085013567ffffffffffffffff811115610c6a57610c696108bd565b5b610c7687828801610bb0565b94509450506020610c89878288016108e3565b9250506040610c9a87828801610c1d565b91505092959194509250565b7f4e487b7100000000000000000000000000000000000000000000000000000000600052601260045260246000fd5b7f4e487b7100000000000000000000000000000000000000000000000000000000600052601160045260246000fd5b6000610d0f826108c2565b9150610d1a836108c2565b925082610d2a57610d29610ca6565b5b828204905092915050565b7f4e487b7100000000000000000000000000000000000000000000000000000000600052602260045260246000fd5b60006002820490506001821680610d7c57607f821691505b60208210811415610d9057610d8f610d35565b5b50919050565b6000610da1826108c2565b91507fffffffffffffffffffffffffffffffffffffffffffffffffffffffffffffffff821415610dd457610dd3610cd5565b5b60018201905091905056fea2646970667358221220a70308cb4002fe59019951b5c237ed23115fbc6ccd62f44d237e3da2ccac905e64736f6c63430008090033",
      "opcodes": "PUSH1 0x80 PUSH1 0x40 MSTORE CALLVALUE DUP1 ISZERO PUSH3 0x11 JUMPI PUSH1 0x0 DUP1 REVERT JUMPDEST POP PUSH1 0x40 MLOAD PUSH3 0xF98 CODESIZE SUB DUP1 PUSH3 0xF98 DUP4 CODECOPY DUP2 DUP2 ADD PUSH1 0x40 MSTORE DUP2 ADD SWAP1 PUSH3 0x37 SWAP2 SWAP1 PUSH3 0x12C JUMP JUMPDEST DUP1 PUSH1 0x2 PUSH1 0x0 PUSH2 0x100 EXP DUP2 SLOAD DUP2 PUSH20 0xFFFFFFFFFFFFFFFFFFFFFFFFFFFFFFFFFFFFFFFF MUL NOT AND SWAP1 DUP4 PUSH20 0xFFFFFFFFFFFFFFFFFFFFFFFFFFFFFFFFFFFFFFFF AND MUL OR SWAP1 SSTORE POP DUP2 PUSH1 0x3 DUP2 SWAP1 SSTORE POP POP POP PUSH3 0x173 JUMP JUMPDEST PUSH1 0x0 DUP1 REVERT JUMPDEST PUSH1 0x0 DUP2 SWAP1 POP SWAP2 SWAP1 POP JUMP JUMPDEST PUSH3 0xA1 DUP2 PUSH3 0x8C JUMP JUMPDEST DUP2 EQ PUSH3 0xAD JUMPI PUSH1 0x0 DUP1 REVERT JUMPDEST POP JUMP JUMPDEST PUSH1 0x0 DUP2 MLOAD SWAP1 POP PUSH3 0xC1 DUP2 PUSH3 0x96 JUMP JUMPDEST SWAP3 SWAP2 POP POP JUMP JUMPDEST PUSH1 0x0 PUSH20 0xFFFFFFFFFFFFFFFFFFFFFFFFFFFFFFFFFFFFFFFF DUP3 AND SWAP1 POP SWAP2 SWAP1 POP JUMP JUMPDEST PUSH1 0x0 PUSH3 0xF4 DUP3 PUSH3 0xC7 JUMP JUMPDEST SWAP1 POP SWAP2 SWAP1 POP JUMP JUMPDEST PUSH3 0x106 DUP2 PUSH3 0xE7 JUMP JUMPDEST DUP2 EQ PUSH3 0x112 JUMPI PUSH1 0x0 DUP1 REVERT JUMPDEST POP JUMP JUMPDEST PUSH1 0x0 DUP2 MLOAD SWAP1 POP PUSH3 0x126 DUP2 PUSH3 0xFB JUMP JUMPDEST SWAP3 SWAP2 POP POP JUMP JUMPDEST PUSH1 0x0 DUP1 PUSH1 0x40 DUP4 DUP6 SUB SLT ISZERO PUSH3 0x146 JUMPI PUSH3 0x145 PUSH3 0x87 JUMP JUMPDEST JUMPDEST PUSH1 0x0 PUSH3 0x156 DUP6 DUP3 DUP7 ADD PUSH3 0xB0 JUMP JUMPDEST SWAP3 POP POP PUSH1 0x20 PUSH3 0x169 DUP6 DUP3 DUP7 ADD PUSH3 0x115 JUMP JUMPDEST SWAP2 POP POP SWAP3 POP SWAP3 SWAP1 POP JUMP JUMPDEST PUSH2 0xE15 DUP1 PUSH3 0x183 PUSH1 0x0 CODECOPY PUSH1 0x0 RETURN INVALID PUSH1 0x80 PUSH1 0x40 MSTORE PUSH1 0x4 CALLDATASIZE LT PUSH2 0x9C JUMPI PUSH1 0x0 CALLDATALOAD PUSH1 0xE0 SHR DUP1 PUSH4 0x82FDE093 GT PUSH2 0x64 JUMPI DUP1 PUSH4 0x82FDE093 EQ PUSH2 0x1A2 JUMPI DUP1 PUSH4 0x8A9CFD55 EQ PUSH2 0x1CD JUMPI DUP1 PUSH4 0x937E09B1 EQ PUSH2 0x1F6 JUMPI DUP1 PUSH4 0xD7BB99BA EQ PUSH2 0x221 JUMPI DUP1 PUSH4 0xD7D1BBDB EQ PUSH2 0x22B JUMPI DUP1 PUSH4 0xFBFA4B7F EQ PUSH2 0x254 JUMPI PUSH2 0x9C JUMP JUMPDEST DUP1 PUSH4 0x3441006 EQ PUSH2 0xA1 JUMPI DUP1 PUSH4 0xA144391 EQ PUSH2 0xCA JUMPI DUP1 PUSH4 0x4051DDAC EQ PUSH2 0x107 JUMPI DUP1 PUSH4 0x481C6A75 EQ PUSH2 0x136 JUMPI DUP1 PUSH4 0x81D12C58 EQ PUSH2 0x161 JUMPI JUMPDEST PUSH1 0x0 DUP1 REVERT JUMPDEST CALLVALUE DUP1 ISZERO PUSH2 0xAD JUMPI PUSH1 0x0 DUP1 REVERT JUMPDEST POP PUSH2 0xC8 PUSH1 0x4 DUP1 CALLDATASIZE SUB DUP2 ADD SWAP1 PUSH2 0xC3 SWAP2 SWAP1 PUSH2 0x8F8 JUMP JUMPDEST PUSH2 0x27F JUMP JUMPDEST STOP JUMPDEST CALLVALUE DUP1 ISZERO PUSH2 0xD6 JUMPI PUSH1 0x0 DUP1 REVERT JUMPDEST POP PUSH2 0xF1 PUSH1 0x4 DUP1 CALLDATASIZE SUB DUP2 ADD SWAP1 PUSH2 0xEC SWAP2 SWAP1 PUSH2 0x983 JUMP JUMPDEST PUSH2 0x3BA JUMP JUMPDEST PUSH1 0x40 MLOAD PUSH2 0xFE SWAP2 SWAP1 PUSH2 0x9CB JUMP JUMPDEST PUSH1 0x40 MLOAD DUP1 SWAP2 SUB SWAP1 RETURN JUMPDEST CALLVALUE DUP1 ISZERO PUSH2 0x113 JUMPI PUSH1 0x0 DUP1 REVERT JUMPDEST POP PUSH2 0x11C PUSH2 0x3DA JUMP JUMPDEST PUSH1 0x40 MLOAD PUSH2 0x12D SWAP6 SWAP5 SWAP4 SWAP3 SWAP2 SWAP1 PUSH2 0xA04 JUMP JUMPDEST PUSH1 0x40 MLOAD DUP1 SWAP2 SUB SWAP1 RETURN JUMPDEST CALLVALUE DUP1 ISZERO PUSH2 0x142 JUMPI PUSH1 0x0 DUP1 REVERT JUMPDEST POP PUSH2 0x14B PUSH2 0x420 JUMP JUMPDEST PUSH1 0x40 MLOAD PUSH2 0x158 SWAP2 SWAP1 PUSH2 0xA57 JUMP JUMPDEST PUSH1 0x40 MLOAD DUP1 SWAP2 SUB SWAP1 RETURN JUMPDEST CALLVALUE DUP1 ISZERO PUSH2 0x16D JUMPI PUSH1 0x0 DUP1 REVERT JUMPDEST POP PUSH2 0x188 PUSH1 0x4 DUP1 CALLDATASIZE SUB DUP2 ADD SWAP1 PUSH2 0x183 SWAP2 SWAP1 PUSH2 0x8F8 JUMP JUMPDEST PUSH2 0x446 JUMP JUMPDEST PUSH1 0x40 MLOAD PUSH2 0x199 SWAP6 SWAP5 SWAP4 SWAP3 SWAP2 SWAP1 PUSH2 0xB2C JUMP JUMPDEST PUSH1 0x40 MLOAD DUP1 SWAP2 SUB SWAP1 RETURN JUMPDEST CALLVALUE DUP1 ISZERO PUSH2 0x1AE JUMPI PUSH1 0x0 DUP1 REVERT JUMPDEST POP PUSH2 0x1B7 PUSH2 0x531 JUMP JUMPDEST PUSH1 0x40 MLOAD PUSH2 0x1C4 SWAP2 SWAP1 PUSH2 0xB86 JUMP JUMPDEST PUSH1 0x40 MLOAD DUP1 SWAP2 SUB SWAP1 RETURN JUMPDEST CALLVALUE DUP1 ISZERO PUSH2 0x1D9 JUMPI PUSH1 0x0 DUP1 REVERT JUMPDEST POP PUSH2 0x1F4 PUSH1 0x4 DUP1 CALLDATASIZE SUB DUP2 ADD SWAP1 PUSH2 0x1EF SWAP2 SWAP1 PUSH2 0xC32 JUMP JUMPDEST PUSH2 0x537 JUMP JUMPDEST STOP JUMPDEST CALLVALUE DUP1 ISZERO PUSH2 0x202 JUMPI PUSH1 0x0 DUP1 REVERT JUMPDEST POP PUSH2 0x20B PUSH2 0x64B JUMP JUMPDEST PUSH1 0x40 MLOAD PUSH2 0x218 SWAP2 SWAP1 PUSH2 0xB86 JUMP JUMPDEST PUSH1 0x40 MLOAD DUP1 SWAP2 SUB SWAP1 RETURN JUMPDEST PUSH2 0x229 PUSH2 0x651 JUMP JUMPDEST STOP JUMPDEST CALLVALUE DUP1 ISZERO PUSH2 0x237 JUMPI PUSH1 0x0 DUP1 REVERT JUMPDEST POP PUSH2 0x252 PUSH1 0x4 DUP1 CALLDATASIZE SUB DUP2 ADD SWAP1 PUSH2 0x24D SWAP2 SWAP1 PUSH2 0x8F8 JUMP JUMPDEST PUSH2 0x6D1 JUMP JUMPDEST STOP JUMPDEST CALLVALUE DUP1 ISZERO PUSH2 0x260 JUMPI PUSH1 0x0 DUP1 REVERT JUMPDEST POP PUSH2 0x269 PUSH2 0x80F JUMP JUMPDEST PUSH1 0x40 MLOAD PUSH2 0x276 SWAP2 SWAP1 PUSH2 0xB86 JUMP JUMPDEST PUSH1 0x40 MLOAD DUP1 SWAP2 SUB SWAP1 RETURN JUMPDEST PUSH1 0x2 PUSH1 0x0 SWAP1 SLOAD SWAP1 PUSH2 0x100 EXP SWAP1 DIV PUSH20 0xFFFFFFFFFFFFFFFFFFFFFFFFFFFFFFFFFFFFFFFF AND PUSH20 0xFFFFFFFFFFFFFFFFFFFFFFFFFFFFFFFFFFFFFFFF AND CALLER PUSH20 0xFFFFFFFFFFFFFFFFFFFFFFFFFFFFFFFFFFFFFFFF AND EQ PUSH2 0x2D9 JUMPI PUSH1 0x0 DUP1 REVERT JUMPDEST PUSH1 0x0 PUSH1 0x1 PUSH1 0x0 DUP4 DUP2 MSTORE PUSH1 0x20 ADD SWAP1 DUP2 MSTORE PUSH1 0x20 ADD PUSH1 0x0 KECCAK256 SWAP1 POP DUP1 PUSH1 0x2 ADD PUSH1 0x14 SWAP1 SLOAD SWAP1 PUSH2 0x100 EXP SWAP1 DIV PUSH1 0xFF AND ISZERO PUSH2 0x30C JUMPI PUSH1 0x0 DUP1 REVERT JUMPDEST PUSH1 0x2 PUSH1 0x5 SLOAD PUSH2 0x31B SWAP2 SWAP1 PUSH2 0xD04 JUMP JUMPDEST DUP2 PUSH1 0x3 ADD SLOAD GT PUSH2 0x32A JUMPI PUSH1 0x0 DUP1 REVERT JUMPDEST DUP1 PUSH1 0x2 ADD PUSH1 0x0 SWAP1 SLOAD SWAP1 PUSH2 0x100 EXP SWAP1 DIV PUSH20 0xFFFFFFFFFFFFFFFFFFFFFFFFFFFFFFFFFFFFFFFF AND PUSH20 0xFFFFFFFFFFFFFFFFFFFFFFFFFFFFFFFFFFFFFFFF AND PUSH2 0x8FC DUP3 PUSH1 0x1 ADD SLOAD SWAP1 DUP2 ISZERO MUL SWAP1 PUSH1 0x40 MLOAD PUSH1 0x0 PUSH1 0x40 MLOAD DUP1 DUP4 SUB DUP2 DUP6 DUP9 DUP9 CALL SWAP4 POP POP POP POP ISZERO DUP1 ISZERO PUSH2 0x398 JUMPI RETURNDATASIZE PUSH1 0x0 DUP1 RETURNDATACOPY RETURNDATASIZE PUSH1 0x0 REVERT JUMPDEST POP PUSH1 0x1 DUP2 PUSH1 0x2 ADD PUSH1 0x14 PUSH2 0x100 EXP DUP2 SLOAD DUP2 PUSH1 0xFF MUL NOT AND SWAP1 DUP4 ISZERO ISZERO MUL OR SWAP1 SSTORE POP POP POP JUMP JUMPDEST PUSH1 0x4 PUSH1 0x20 MSTORE DUP1 PUSH1 0x0 MSTORE PUSH1 0x40 PUSH1 0x0 KECCAK256 PUSH1 0x0 SWAP2 POP SLOAD SWAP1 PUSH2 0x100 EXP SWAP1 DIV PUSH1 0xFF AND DUP2 JUMP JUMPDEST PUSH1 0x0 DUP1 PUSH1 0x0 DUP1 PUSH1 0x0 PUSH1 0x3 SLOAD SELFBALANCE PUSH1 0x0 SLOAD PUSH1 0x5 SLOAD PUSH1 0x2 PUSH1 0x0 SWAP1 SLOAD SWAP1 PUSH2 0x100 EXP SWAP1 DIV PUSH20 0xFFFFFFFFFFFFFFFFFFFFFFFFFFFFFFFFFFFFFFFF AND SWAP5 POP SWAP5 POP SWAP5 POP SWAP5 POP SWAP5 POP SWAP1 SWAP2 SWAP3 SWAP4 SWAP5 JUMP JUMPDEST PUSH1 0x2 PUSH1 0x0 SWAP1 SLOAD SWAP1 PUSH2 0x100 EXP SWAP1 DIV PUSH20 0xFFFFFFFFFFFFFFFFFFFFFFFFFFFFFFFFFFFFFFFF AND DUP2 JUMP JUMPDEST PUSH1 0x1 PUSH1 0x20 MSTORE DUP1 PUSH1 0x0 MSTORE PUSH1 0x40 PUSH1 0x0 KECCAK256 PUSH1 0x0 SWAP2 POP SWAP1 POP DUP1 PUSH1 0x0 ADD DUP1 SLOAD PUSH2 0x469 SWAP1 PUSH2 0xD64 JUMP JUMPDEST DUP1 PUSH1 0x1F ADD PUSH1 0x20 DUP1 SWAP2 DIV MUL PUSH1 0x20 ADD PUSH1 0x40 MLOAD SWAP1 DUP2 ADD PUSH1 0x40 MSTORE DUP1 SWAP3 SWAP2 SWAP1 DUP2 DUP2 MSTORE PUSH1 0x20 ADD DUP3 DUP1 SLOAD PUSH2 0x495 SWAP1 PUSH2 0xD64 JUMP JUMPDEST DUP1 ISZERO PUSH2 0x4E2 JUMPI DUP1 PUSH1 0x1F LT PUSH2 0x4B7 JUMPI PUSH2 0x100 DUP1 DUP4 SLOAD DIV MUL DUP4 MSTORE SWAP2 PUSH1 0x20 ADD SWAP2 PUSH2 0x4E2 JUMP JUMPDEST DUP3 ADD SWAP2 SWAP1 PUSH1 0x0 MSTORE PUSH1 0x20 PUSH1 0x0 KECCAK256 SWAP1 JUMPDEST DUP2 SLOAD DUP2 MSTORE SWAP1 PUSH1 0x1 ADD SWAP1 PUSH1 0x20 ADD DUP1 DUP4 GT PUSH2 0x4C5 JUMPI DUP3 SWAP1 SUB PUSH1 0x1F AND DUP3 ADD SWAP2 JUMPDEST POP POP POP POP POP SWAP1 DUP1 PUSH1 0x1 ADD SLOAD SWAP1 DUP1 PUSH1 0x2 ADD PUSH1 0x0 SWAP1 SLOAD SWAP1 PUSH2 0x100 EXP SWAP1 DIV PUSH20 0xFFFFFFFFFFFFFFFFFFFFFFFFFFFFFFFFFFFFFFFF AND SWAP1 DUP1 PUSH1 0x2 ADD PUSH1 0x14 SWAP1 SLOAD SWAP1 PUSH2 0x100 EXP SWAP1 DIV PUSH1 0xFF AND SWAP1 DUP1 PUSH1 0x3 ADD SLOAD SWAP1 POP DUP6 JUMP JUMPDEST PUSH1 0x5 SLOAD DUP2 JUMP JUMPDEST PUSH1 0x2 PUSH1 0x0 SWAP1 SLOAD SWAP1 PUSH2 0x100 EXP SWAP1 DIV PUSH20 0xFFFFFFFFFFFFFFFFFFFFFFFFFFFFFFFFFFFFFFFF AND PUSH20 0xFFFFFFFFFFFFFFFFFFFFFFFFFFFFFFFFFFFFFFFF AND CALLER PUSH20 0xFFFFFFFFFFFFFFFFFFFFFFFFFFFFFFFFFFFFFFFF AND EQ PUSH2 0x591 JUMPI PUSH1 0x0 DUP1 REVERT JUMPDEST PUSH1 0x0 PUSH1 0x1 PUSH1 0x0 DUP1 PUSH1 0x0 DUP2 SLOAD DUP1 SWAP3 SWAP2 SWAP1 PUSH2 0x5A9 SWAP1 PUSH2 0xD96 JUMP JUMPDEST SWAP2 SWAP1 POP SSTORE DUP2 MSTORE PUSH1 0x20 ADD SWAP1 DUP2 MSTORE PUSH1 0x20 ADD PUSH1 0x0 KECCAK256 SWAP1 POP DUP5 DUP5 DUP3 PUSH1 0x0 ADD SWAP2 SWAP1 PUSH2 0x5D0 SWAP3 SWAP2 SWAP1 PUSH2 0x815 JUMP JUMPDEST POP DUP3 DUP2 PUSH1 0x1 ADD DUP2 SWAP1 SSTORE POP DUP2 DUP2 PUSH1 0x2 ADD PUSH1 0x0 PUSH2 0x100 EXP DUP2 SLOAD DUP2 PUSH20 0xFFFFFFFFFFFFFFFFFFFFFFFFFFFFFFFFFFFFFFFF MUL NOT AND SWAP1 DUP4 PUSH20 0xFFFFFFFFFFFFFFFFFFFFFFFFFFFFFFFFFFFFFFFF AND MUL OR SWAP1 SSTORE POP PUSH1 0x0 DUP2 PUSH1 0x2 ADD PUSH1 0x14 PUSH2 0x100 EXP DUP2 SLOAD DUP2 PUSH1 0xFF MUL NOT AND SWAP1 DUP4 ISZERO ISZERO MUL OR SWAP1 SSTORE POP PUSH1 0x0 DUP2 PUSH1 0x3 ADD DUP2 SWAP1 SSTORE POP POP POP POP POP POP JUMP JUMPDEST PUSH1 0x3 SLOAD DUP2 JUMP JUMPDEST PUSH1 0x3 SLOAD CALLVALUE GT PUSH2 0x65F JUMPI PUSH1 0x0 DUP1 REVERT JUMPDEST PUSH1 0x1 PUSH1 0x4 PUSH1 0x0 CALLER PUSH20 0xFFFFFFFFFFFFFFFFFFFFFFFFFFFFFFFFFFFFFFFF AND PUSH20 0xFFFFFFFFFFFFFFFFFFFFFFFFFFFFFFFFFFFFFFFF AND DUP2 MSTORE PUSH1 0x20 ADD SWAP1 DUP2 MSTORE PUSH1 0x20 ADD PUSH1 0x0 KECCAK256 PUSH1 0x0 PUSH2 0x100 EXP DUP2 SLOAD DUP2 PUSH1 0xFF MUL NOT AND SWAP1 DUP4 ISZERO ISZERO MUL OR SWAP1 SSTORE POP PUSH1 0x5 PUSH1 0x0 DUP2 SLOAD DUP1 SWAP3 SWAP2 SWAP1 PUSH2 0x6CA SWAP1 PUSH2 0xD96 JUMP JUMPDEST SWAP2 SWAP1 POP SSTORE POP JUMP JUMPDEST PUSH1 0x0 PUSH1 0x1 PUSH1 0x0 DUP4 DUP2 MSTORE PUSH1 0x20 ADD SWAP1 DUP2 MSTORE PUSH1 0x20 ADD PUSH1 0x0 KECCAK256 SWAP1 POP PUSH1 0x4 PUSH1 0x0 CALLER PUSH20 0xFFFFFFFFFFFFFFFFFFFFFFFFFFFFFFFFFFFFFFFF AND PUSH20 0xFFFFFFFFFFFFFFFFFFFFFFFFFFFFFFFFFFFFFFFF AND DUP2 MSTORE PUSH1 0x20 ADD SWAP1 DUP2 MSTORE PUSH1 0x20 ADD PUSH1 0x0 KECCAK256 PUSH1 0x0 SWAP1 SLOAD SWAP1 PUSH2 0x100 EXP SWAP1 DIV PUSH1 0xFF AND PUSH2 0x73E JUMPI PUSH1 0x0 DUP1 REVERT JUMPDEST DUP1 PUSH1 0x4 ADD PUSH1 0x0 CALLER PUSH20 0xFFFFFFFFFFFFFFFFFFFFFFFFFFFFFFFFFFFFFFFF AND PUSH20 0xFFFFFFFFFFFFFFFFFFFFFFFFFFFFFFFFFFFFFFFF AND DUP2 MSTORE PUSH1 0x20 ADD SWAP1 DUP2 MSTORE PUSH1 0x20 ADD PUSH1 0x0 KECCAK256 PUSH1 0x0 SWAP1 SLOAD SWAP1 PUSH2 0x100 EXP SWAP1 DIV PUSH1 0xFF AND ISZERO PUSH2 0x797 JUMPI PUSH1 0x0 DUP1 REVERT JUMPDEST PUSH1 0x1 DUP2 PUSH1 0x4 ADD PUSH1 0x0 CALLER PUSH20 0xFFFFFFFFFFFFFFFFFFFFFFFFFFFFFFFFFFFFFFFF AND PUSH20 0xFFFFFFFFFFFFFFFFFFFFFFFFFFFFFFFFFFFFFFFF AND DUP2 MSTORE PUSH1 0x20 ADD SWAP1 DUP2 MSTORE PUSH1 0x20 ADD PUSH1 0x0 KECCAK256 PUSH1 0x0 PUSH2 0x100 EXP DUP2 SLOAD DUP2 PUSH1 0xFF MUL NOT AND SWAP1 DUP4 ISZERO ISZERO MUL OR SWAP1 SSTORE POP DUP1 PUSH1 0x3 ADD PUSH1 0x0 DUP2 SLOAD DUP1 SWAP3 SWAP2 SWAP1 PUSH2 0x806 SWAP1 PUSH2 0xD96 JUMP JUMPDEST SWAP2 SWAP1 POP SSTORE POP POP POP JUMP JUMPDEST PUSH1 0x0 SLOAD DUP2 JUMP JUMPDEST DUP3 DUP1 SLOAD PUSH2 0x821 SWAP1 PUSH2 0xD64 JUMP JUMPDEST SWAP1 PUSH1 0x0 MSTORE PUSH1 0x20 PUSH1 0x0 KECCAK256 SWAP1 PUSH1 0x1F ADD PUSH1 0x20 SWAP1 DIV DUP2 ADD SWAP3 DUP3 PUSH2 0x843 JUMPI PUSH1 0x0 DUP6 SSTORE PUSH2 0x88A JUMP JUMPDEST DUP3 PUSH1 0x1F LT PUSH2 0x85C JUMPI DUP1 CALLDATALOAD PUSH1 0xFF NOT AND DUP4 DUP1 ADD OR DUP6 SSTORE PUSH2 0x88A JUMP JUMPDEST DUP3 DUP1 ADD PUSH1 0x1 ADD DUP6 SSTORE DUP3 ISZERO PUSH2 0x88A JUMPI SWAP2 DUP3 ADD JUMPDEST DUP3 DUP2 GT ISZERO PUSH2 0x889 JUMPI DUP3 CALLDATALOAD DUP3 SSTORE SWAP2 PUSH1 0x20 ADD SWAP2 SWAP1 PUSH1 0x1 ADD SWAP1 PUSH2 0x86E JUMP JUMPDEST JUMPDEST POP SWAP1 POP PUSH2 0x897 SWAP2 SWAP1 PUSH2 0x89B JUMP JUMPDEST POP SWAP1 JUMP JUMPDEST JUMPDEST DUP1 DUP3 GT ISZERO PUSH2 0x8B4 JUMPI PUSH1 0x0 DUP2 PUSH1 0x0 SWAP1 SSTORE POP PUSH1 0x1 ADD PUSH2 0x89C JUMP JUMPDEST POP SWAP1 JUMP JUMPDEST PUSH1 0x0 DUP1 REVERT JUMPDEST PUSH1 0x0 DUP1 REVERT JUMPDEST PUSH1 0x0 DUP2 SWAP1 POP SWAP2 SWAP1 POP JUMP JUMPDEST PUSH2 0x8D5 DUP2 PUSH2 0x8C2 JUMP JUMPDEST DUP2 EQ PUSH2 0x8E0 JUMPI PUSH1 0x0 DUP1 REVERT JUMPDEST POP JUMP JUMPDEST PUSH1 0x0 DUP2 CALLDATALOAD SWAP1 POP PUSH2 0x8F2 DUP2 PUSH2 0x8CC JUMP JUMPDEST SWAP3 SWAP2 POP POP JUMP JUMPDEST PUSH1 0x0 PUSH1 0x20 DUP3 DUP5 SUB SLT ISZERO PUSH2 0x90E JUMPI PUSH2 0x90D PUSH2 0x8B8 JUMP JUMPDEST JUMPDEST PUSH1 0x0 PUSH2 0x91C DUP5 DUP3 DUP6 ADD PUSH2 0x8E3 JUMP JUMPDEST SWAP2 POP POP SWAP3 SWAP2 POP POP JUMP JUMPDEST PUSH1 0x0 PUSH20 0xFFFFFFFFFFFFFFFFFFFFFFFFFFFFFFFFFFFFFFFF DUP3 AND SWAP1 POP SWAP2 SWAP1 POP JUMP JUMPDEST PUSH1 0x0 PUSH2 0x950 DUP3 PUSH2 0x925 JUMP JUMPDEST SWAP1 POP SWAP2 SWAP1 POP JUMP JUMPDEST PUSH2 0x960 DUP2 PUSH2 0x945 JUMP JUMPDEST DUP2 EQ PUSH2 0x96B JUMPI PUSH1 0x0 DUP1 REVERT JUMPDEST POP JUMP JUMPDEST PUSH1 0x0 DUP2 CALLDATALOAD SWAP1 POP PUSH2 0x97D DUP2 PUSH2 0x957 JUMP JUMPDEST SWAP3 SWAP2 POP POP JUMP JUMPDEST PUSH1 0x0 PUSH1 0x20 DUP3 DUP5 SUB SLT ISZERO PUSH2 0x999 JUMPI PUSH2 0x998 PUSH2 0x8B8 JUMP JUMPDEST JUMPDEST PUSH1 0x0 PUSH2 0x9A7 DUP5 DUP3 DUP6 ADD PUSH2 0x96E JUMP JUMPDEST SWAP2 POP POP SWAP3 SWAP2 POP POP JUMP JUMPDEST PUSH1 0x0 DUP2 ISZERO ISZERO SWAP1 POP SWAP2 SWAP1 POP JUMP JUMPDEST PUSH2 0x9C5 DUP2 PUSH2 0x9B0 JUMP JUMPDEST DUP3 MSTORE POP POP JUMP JUMPDEST PUSH1 0x0 PUSH1 0x20 DUP3 ADD SWAP1 POP PUSH2 0x9E0 PUSH1 0x0 DUP4 ADD DUP5 PUSH2 0x9BC JUMP JUMPDEST SWAP3 SWAP2 POP POP JUMP JUMPDEST PUSH2 0x9EF DUP2 PUSH2 0x8C2 JUMP JUMPDEST DUP3 MSTORE POP POP JUMP JUMPDEST PUSH2 0x9FE DUP2 PUSH2 0x945 JUMP JUMPDEST DUP3 MSTORE POP POP JUMP JUMPDEST PUSH1 0x0 PUSH1 0xA0 DUP3 ADD SWAP1 POP PUSH2 0xA19 PUSH1 0x0 DUP4 ADD DUP9 PUSH2 0x9E6 JUMP JUMPDEST PUSH2 0xA26 PUSH1 0x20 DUP4 ADD DUP8 PUSH2 0x9E6 JUMP JUMPDEST PUSH2 0xA33 PUSH1 0x40 DUP4 ADD DUP7 PUSH2 0x9E6 JUMP JUMPDEST PUSH2 0xA40 PUSH1 0x60 DUP4 ADD DUP6 PUSH2 0x9E6 JUMP JUMPDEST PUSH2 0xA4D PUSH1 0x80 DUP4 ADD DUP5 PUSH2 0x9F5 JUMP JUMPDEST SWAP7 SWAP6 POP POP POP POP POP POP JUMP JUMPDEST PUSH1 0x0 PUSH1 0x20 DUP3 ADD SWAP1 POP PUSH2 0xA6C PUSH1 0x0 DUP4 ADD DUP5 PUSH2 0x9F5 JUMP JUMPDEST SWAP3 SWAP2 POP POP JUMP JUMPDEST PUSH1 0x0 DUP2 MLOAD SWAP1 POP SWAP2 SWAP1 POP JUMP JUMPDEST PUSH1 0x0 DUP3 DUP3 MSTORE PUSH1 0x20 DUP3 ADD SWAP1 POP SWAP3 SWAP2 POP POP JUMP JUMPDEST PUSH1 0x0 JUMPDEST DUP4 DUP2 LT ISZERO PUSH2 0xAAC JUMPI DUP1 DUP3 ADD MLOAD DUP2 DUP5 ADD MSTORE PUSH1 0x20 DUP2 ADD SWAP1 POP PUSH2 0xA91 JUMP JUMPDEST DUP4 DUP2 GT ISZERO PUSH2 0xABB JUMPI PUSH1 0x0 DUP5 DUP5 ADD MSTORE JUMPDEST POP POP POP POP JUMP JUMPDEST PUSH1 0x0 PUSH1 0x1F NOT PUSH1 0x1F DUP4 ADD AND SWAP1 POP SWAP2 SWAP1 POP JUMP JUMPDEST PUSH1 0x0 PUSH2 0xADD DUP3 PUSH2 0xA72 JUMP JUMPDEST PUSH2 0xAE7 DUP2 DUP6 PUSH2 0xA7D JUMP JUMPDEST SWAP4 POP PUSH2 0xAF7 DUP2 DUP6 PUSH1 0x20 DUP7 ADD PUSH2 0xA8E JUMP JUMPDEST PUSH2 0xB00 DUP2 PUSH2 0xAC1 JUMP JUMPDEST DUP5 ADD SWAP2 POP POP SWAP3 SWAP2 POP POP JUMP JUMPDEST PUSH1 0x0 PUSH2 0xB16 DUP3 PUSH2 0x925 JUMP JUMPDEST SWAP1 POP SWAP2 SWAP1 POP JUMP JUMPDEST PUSH2 0xB26 DUP2 PUSH2 0xB0B JUMP JUMPDEST DUP3 MSTORE POP POP JUMP JUMPDEST PUSH1 0x0 PUSH1 0xA0 DUP3 ADD SWAP1 POP DUP2 DUP2 SUB PUSH1 0x0 DUP4 ADD MSTORE PUSH2 0xB46 DUP2 DUP9 PUSH2 0xAD2 JUMP JUMPDEST SWAP1 POP PUSH2 0xB55 PUSH1 0x20 DUP4 ADD DUP8 PUSH2 0x9E6 JUMP JUMPDEST PUSH2 0xB62 PUSH1 0x40 DUP4 ADD DUP7 PUSH2 0xB1D JUMP JUMPDEST PUSH2 0xB6F PUSH1 0x60 DUP4 ADD DUP6 PUSH2 0x9BC JUMP JUMPDEST PUSH2 0xB7C PUSH1 0x80 DUP4 ADD DUP5 PUSH2 0x9E6 JUMP JUMPDEST SWAP7 SWAP6 POP POP POP POP POP POP JUMP JUMPDEST PUSH1 0x0 PUSH1 0x20 DUP3 ADD SWAP1 POP PUSH2 0xB9B PUSH1 0x0 DUP4 ADD DUP5 PUSH2 0x9E6 JUMP JUMPDEST SWAP3 SWAP2 POP POP JUMP JUMPDEST PUSH1 0x0 DUP1 REVERT JUMPDEST PUSH1 0x0 DUP1 REVERT JUMPDEST PUSH1 0x0 DUP1 REVERT JUMPDEST PUSH1 0x0 DUP1 DUP4 PUSH1 0x1F DUP5 ADD SLT PUSH2 0xBC6 JUMPI PUSH2 0xBC5 PUSH2 0xBA1 JUMP JUMPDEST JUMPDEST DUP3 CALLDATALOAD SWAP1 POP PUSH8 0xFFFFFFFFFFFFFFFF DUP2 GT ISZERO PUSH2 0xBE3 JUMPI PUSH2 0xBE2 PUSH2 0xBA6 JUMP JUMPDEST JUMPDEST PUSH1 0x20 DUP4 ADD SWAP2 POP DUP4 PUSH1 0x1 DUP3 MUL DUP4 ADD GT ISZERO PUSH2 0xBFF JUMPI PUSH2 0xBFE PUSH2 0xBAB JUMP JUMPDEST JUMPDEST SWAP3 POP SWAP3 SWAP1 POP JUMP JUMPDEST PUSH2 0xC0F DUP2 PUSH2 0xB0B JUMP JUMPDEST DUP2 EQ PUSH2 0xC1A JUMPI PUSH1 0x0 DUP1 REVERT JUMPDEST POP JUMP JUMPDEST PUSH1 0x0 DUP2 CALLDATALOAD SWAP1 POP PUSH2 0xC2C DUP2 PUSH2 0xC06 JUMP JUMPDEST SWAP3 SWAP2 POP POP JUMP JUMPDEST PUSH1 0x0 DUP1 PUSH1 0x0 DUP1 PUSH1 0x60 DUP6 DUP8 SUB SLT ISZERO PUSH2 0xC4C JUMPI PUSH2 0xC4B PUSH2 0x8B8 JUMP JUMPDEST JUMPDEST PUSH1 0x0 DUP6 ADD CALLDATALOAD PUSH8 0xFFFFFFFFFFFFFFFF DUP2 GT ISZERO PUSH2 0xC6A JUMPI PUSH2 0xC69 PUSH2 0x8BD JUMP JUMPDEST JUMPDEST PUSH2 0xC76 DUP8 DUP3 DUP9 ADD PUSH2 0xBB0 JUMP JUMPDEST SWAP5 POP SWAP5 POP POP PUSH1 0x20 PUSH2 0xC89 DUP8 DUP3 DUP9 ADD PUSH2 0x8E3 JUMP JUMPDEST SWAP3 POP POP PUSH1 0x40 PUSH2 0xC9A DUP8 DUP3 DUP9 ADD PUSH2 0xC1D JUMP JUMPDEST SWAP2 POP POP SWAP3 SWAP6 SWAP2 SWAP5 POP SWAP3 POP JUMP JUMPDEST PUSH32 0x4E487B7100000000000000000000000000000000000000000000000000000000 PUSH1 0x0 MSTORE PUSH1 0x12 PUSH1 0x4 MSTORE PUSH1 0x24 PUSH1 0x0 REVERT JUMPDEST PUSH32 0x4E487B7100000000000000000000000000000000000000000000000000000000 PUSH1 0x0 MSTORE PUSH1 0x11 PUSH1 0x4 MSTORE PUSH1 0x24 PUSH1 0x0 REVERT JUMPDEST PUSH1 0x0 PUSH2 0xD0F DUP3 PUSH2 0x8C2 JUMP JUMPDEST SWAP2 POP PUSH2 0xD1A DUP4 PUSH2 0x8C2 JUMP JUMPDEST SWAP3 POP DUP3 PUSH2 0xD2A JUMPI PUSH2 0xD29 PUSH2 0xCA6 JUMP JUMPDEST JUMPDEST DUP3 DUP3 DIV SWAP1 POP SWAP3 SWAP2 POP POP JUMP JUMPDEST PUSH32 0x4E487B7100000000000000000000000000000000000000000000000000000000 PUSH1 0x0 MSTORE PUSH1 0x22 PUSH1 0x4 MSTORE PUSH1 0x24 PUSH1 0x0 REVERT JUMPDEST PUSH1 0x0 PUSH1 0x2 DUP3 DIV SWAP1 POP PUSH1 0x1 DUP3 AND DUP1 PUSH2 0xD7C JUMPI PUSH1 0x7F DUP3 AND SWAP2 POP JUMPDEST PUSH1 0x20 DUP3 LT DUP2 EQ ISZERO PUSH2 0xD90 JUMPI PUSH2 0xD8F PUSH2 0xD35 JUMP JUMPDEST JUMPDEST POP SWAP2 SWAP1 POP JUMP JUMPDEST PUSH1 0x0 PUSH2 0xDA1 DUP3 PUSH2 0x8C2 JUMP JUMPDEST SWAP2 POP PUSH32 0xFFFFFFFFFFFFFFFFFFFFFFFFFFFFFFFFFFFFFFFFFFFFFFFFFFFFFFFFFFFFFFFF DUP3 EQ ISZERO PUSH2 0xDD4 JUMPI PUSH2 0xDD3 PUSH2 0xCD5 JUMP JUMPDEST JUMPDEST PUSH1 0x1 DUP3 ADD SWAP1 POP SWAP2 SWAP1 POP JUMP INVALID LOG2 PUSH5 0x6970667358 0x22 SLT KECCAK256 0xA7 SUB ADDMOD 0xCB BLOCKHASH MUL INVALID MSIZE ADD SWAP10 MLOAD 0xB5 0xC2 CALLDATACOPY 0xED 0x23 GT 0x5F 0xBC PUSH13 0xCD62F44D237E3DA2CCAC905E64 PUSH20 0x6F6C634300080900330000000000000000000000 "
    },
    "gasEstimates": {
      "creation": {
        "codeDepositCost": "721000",
        "executionCost": "infinite",
        "totalCost": "infinite"
      },
      "external": {
        "approveRequest(uint256)": "infinite",
        "approvers(address)": "2868",
        "approversCount()": "2429",
        "contribute()": "51024",
        "createRequest(string,uint256,address)": "infinite",
        "finalizeRequest(uint256)": "infinite",
        "getSummary()": "infinite",
        "manager()": "2581",
        "minimumContribution()": "2473",
        "requests(uint256)": "infinite",
        "requestsCount()": "2539"
      }
    },
    "methodIdentifiers": {
      "approveRequest(uint256)": "d7d1bbdb",
      "approvers(address)": "0a144391",
      "approversCount()": "82fde093",
      "contribute()": "d7bb99ba",
      "createRequest(string,uint256,address)": "8a9cfd55",
      "finalizeRequest(uint256)": "03441006",
      "getSummary()": "4051ddac",
      "manager()": "481c6a75",
      "minimumContribution()": "937e09b1",
      "requests(uint256)": "81d12c58",
      "requestsCount()": "fbfa4b7f"
    }
  },
  "storageLayout": {
    "storage": [
      {
        "astId": 57,
        "contract": "Campaign.sol:Campaign",
        "label": "requestsCount",
        "offset": 0,
        "slot": "0",
        "type": "t_uint256"
      },
      {
        "astId": 62,
        "contract": "Campaign.sol:Campaign",
        "label": "requests",
        "offset": 0,
        "slot": "1",
        "type": "t_mapping(t_uint256,t_struct(Request)55_storage)"
      },
      {
        "astId": 64,
        "contract": "Campaign.sol:Campaign",
        "label": "manager",
        "offset": 0,
        "slot": "2",
        "type": "t_address"
      },
      {
        "astId": 66,
        "contract": "Campaign.sol:Campaign",
        "label": "minimumContribution",
        "offset": 0,
        "slot": "3",
        "type": "t_uint256"
      },
      {
        "astId": 70,
        "contract": "Campaign.sol:Campaign",
        "label": "approvers",
        "offset": 0,
        "slot": "4",
        "type": "t_mapping(t_address,t_bool)"
      },
      {
        "astId": 72,
        "contract": "Campaign.sol:Campaign",
        "label": "approversCount",
        "offset": 0,
        "slot": "5",
        "type": "t_uint256"
      }
    ],
    "types": {
      "t_address": {
        "encoding": "inplace",
        "label": "address",
        "numberOfBytes": "20"
      },
      "t_address_payable": {
        "encoding": "inplace",
        "label": "address payable",
        "numberOfBytes": "20"
      },
      "t_bool": {
        "encoding": "inplace",
        "label": "bool",
        "numberOfBytes": "1"
      },
      "t_mapping(t_address,t_bool)": {
        "encoding": "mapping",
        "key": "t_address",
        "label": "mapping(address => bool)",
        "numberOfBytes": "32",
        "value": "t_bool"
      },
      "t_mapping(t_uint256,t_struct(Request)55_storage)": {
        "encoding": "mapping",
        "key": "t_uint256",
        "label": "mapping(uint256 => struct Campaign.Request)",
        "numberOfBytes": "32",
        "value": "t_struct(Request)55_storage"
      },
      "t_string_storage": {
        "encoding": "bytes",
        "label": "string",
        "numberOfBytes": "32"
      },
      "t_struct(Request)55_storage": {
        "encoding": "inplace",
        "label": "struct Campaign.Request",
        "members": [
          {
            "astId": 42,
            "contract": "Campaign.sol:Campaign",
            "label": "description",
            "offset": 0,
            "slot": "0",
            "type": "t_string_storage"
          },
          {
            "astId": 44,
            "contract": "Campaign.sol:Campaign",
            "label": "value",
            "offset": 0,
            "slot": "1",
            "type": "t_uint256"
          },
          {
            "astId": 46,
            "contract": "Campaign.sol:Campaign",
            "label": "recipient",
            "offset": 0,
            "slot": "2",
            "type": "t_address_payable"
          },
          {
            "astId": 48,
            "contract": "Campaign.sol:Campaign",
            "label": "complete",
            "offset": 20,
            "slot": "2",
            "type": "t_bool"
          },
          {
            "astId": 50,
            "contract": "Campaign.sol:Campaign",
            "label": "approvalCount",
            "offset": 0,
            "slot": "3",
            "type": "t_uint256"
          },
          {
            "astId": 54,
            "contract": "Campaign.sol:Campaign",
            "label": "approvals",
            "offset": 0,
            "slot": "4",
            "type": "t_mapping(t_address,t_bool)"
          }
        ],
        "numberOfBytes": "160"
      },
      "t_uint256": {
        "encoding": "inplace",
        "label": "uint256",
        "numberOfBytes": "32"
      }
    }
  },
  "userdoc": {
    "kind": "user",
    "methods": {},
    "version": 1
  }
}